{
  "_format": "hh-sol-artifact-1",
  "contractName": "DynamicSvgNft",
  "sourceName": "contracts/DynamicSvgNft.sol",
  "abi": [
    {
      "inputs": [
        {
          "internalType": "address",
          "name": "priceFeedAddress",
          "type": "address"
        },
        {
          "internalType": "string",
          "name": "lowSvg",
          "type": "string"
        },
        {
          "internalType": "string",
          "name": "highSvg",
          "type": "string"
        }
      ],
      "stateMutability": "nonpayable",
      "type": "constructor"
    },
    {
      "anonymous": false,
      "inputs": [
        {
          "indexed": true,
          "internalType": "address",
          "name": "owner",
          "type": "address"
        },
        {
          "indexed": true,
          "internalType": "address",
          "name": "approved",
          "type": "address"
        },
        {
          "indexed": true,
          "internalType": "uint256",
          "name": "tokenId",
          "type": "uint256"
        }
      ],
      "name": "Approval",
      "type": "event"
    },
    {
      "anonymous": false,
      "inputs": [
        {
          "indexed": true,
          "internalType": "address",
          "name": "owner",
          "type": "address"
        },
        {
          "indexed": true,
          "internalType": "address",
          "name": "operator",
          "type": "address"
        },
        {
          "indexed": false,
          "internalType": "bool",
          "name": "approved",
          "type": "bool"
        }
      ],
      "name": "ApprovalForAll",
      "type": "event"
    },
    {
      "anonymous": false,
      "inputs": [
        {
          "indexed": true,
          "internalType": "uint256",
          "name": "tokenId",
          "type": "uint256"
        },
        {
          "indexed": false,
          "internalType": "int256",
          "name": "highValue",
          "type": "int256"
        }
      ],
      "name": "CreatedNFT",
      "type": "event"
    },
    {
      "anonymous": false,
      "inputs": [
        {
          "indexed": true,
          "internalType": "address",
          "name": "from",
          "type": "address"
        },
        {
          "indexed": true,
          "internalType": "address",
          "name": "to",
          "type": "address"
        },
        {
          "indexed": true,
          "internalType": "uint256",
          "name": "tokenId",
          "type": "uint256"
        }
      ],
      "name": "Transfer",
      "type": "event"
    },
    {
      "inputs": [
        {
          "internalType": "address",
          "name": "to",
          "type": "address"
        },
        {
          "internalType": "uint256",
          "name": "tokenId",
          "type": "uint256"
        }
      ],
      "name": "approve",
      "outputs": [],
      "stateMutability": "nonpayable",
      "type": "function"
    },
    {
      "inputs": [
        {
          "internalType": "address",
          "name": "owner",
          "type": "address"
        }
      ],
      "name": "balanceOf",
      "outputs": [
        {
          "internalType": "uint256",
          "name": "",
          "type": "uint256"
        }
      ],
      "stateMutability": "view",
      "type": "function"
    },
    {
      "inputs": [
        {
          "internalType": "uint256",
          "name": "tokenId",
          "type": "uint256"
        }
      ],
      "name": "getApproved",
      "outputs": [
        {
          "internalType": "address",
          "name": "",
          "type": "address"
        }
      ],
      "stateMutability": "view",
      "type": "function"
    },
    {
      "inputs": [
        {
          "internalType": "address",
          "name": "owner",
          "type": "address"
        },
        {
          "internalType": "address",
          "name": "operator",
          "type": "address"
        }
      ],
      "name": "isApprovedForAll",
      "outputs": [
        {
          "internalType": "bool",
          "name": "",
          "type": "bool"
        }
      ],
      "stateMutability": "view",
      "type": "function"
    },
    {
      "inputs": [
        {
          "internalType": "int256",
          "name": "highValue",
          "type": "int256"
        }
      ],
      "name": "mintNft",
      "outputs": [],
      "stateMutability": "nonpayable",
      "type": "function"
    },
    {
      "inputs": [],
      "name": "name",
      "outputs": [
        {
          "internalType": "string",
          "name": "",
          "type": "string"
        }
      ],
      "stateMutability": "view",
      "type": "function"
    },
    {
      "inputs": [
        {
          "internalType": "uint256",
          "name": "tokenId",
          "type": "uint256"
        }
      ],
      "name": "ownerOf",
      "outputs": [
        {
          "internalType": "address",
          "name": "",
          "type": "address"
        }
      ],
      "stateMutability": "view",
      "type": "function"
    },
    {
      "inputs": [
        {
          "internalType": "uint256",
          "name": "",
          "type": "uint256"
        }
      ],
      "name": "s_tokenIdToHighValue",
      "outputs": [
        {
          "internalType": "int256",
          "name": "",
          "type": "int256"
        }
      ],
      "stateMutability": "view",
      "type": "function"
    },
    {
      "inputs": [
        {
          "internalType": "address",
          "name": "from",
          "type": "address"
        },
        {
          "internalType": "address",
          "name": "to",
          "type": "address"
        },
        {
          "internalType": "uint256",
          "name": "tokenId",
          "type": "uint256"
        }
      ],
      "name": "safeTransferFrom",
      "outputs": [],
      "stateMutability": "nonpayable",
      "type": "function"
    },
    {
      "inputs": [
        {
          "internalType": "address",
          "name": "from",
          "type": "address"
        },
        {
          "internalType": "address",
          "name": "to",
          "type": "address"
        },
        {
          "internalType": "uint256",
          "name": "tokenId",
          "type": "uint256"
        },
        {
          "internalType": "bytes",
          "name": "data",
          "type": "bytes"
        }
      ],
      "name": "safeTransferFrom",
      "outputs": [],
      "stateMutability": "nonpayable",
      "type": "function"
    },
    {
      "inputs": [
        {
          "internalType": "address",
          "name": "operator",
          "type": "address"
        },
        {
          "internalType": "bool",
          "name": "approved",
          "type": "bool"
        }
      ],
      "name": "setApprovalForAll",
      "outputs": [],
      "stateMutability": "nonpayable",
      "type": "function"
    },
    {
      "inputs": [
        {
          "internalType": "bytes4",
          "name": "interfaceId",
          "type": "bytes4"
        }
      ],
      "name": "supportsInterface",
      "outputs": [
        {
          "internalType": "bool",
          "name": "",
          "type": "bool"
        }
      ],
      "stateMutability": "view",
      "type": "function"
    },
    {
      "inputs": [
        {
          "internalType": "string",
          "name": "svg",
          "type": "string"
        }
      ],
      "name": "svgToImageURI",
      "outputs": [
        {
          "internalType": "string",
          "name": "",
          "type": "string"
        }
      ],
      "stateMutability": "pure",
      "type": "function"
    },
    {
      "inputs": [],
      "name": "symbol",
      "outputs": [
        {
          "internalType": "string",
          "name": "",
          "type": "string"
        }
      ],
      "stateMutability": "view",
      "type": "function"
    },
    {
      "inputs": [
        {
          "internalType": "uint256",
          "name": "tokenId",
          "type": "uint256"
        }
      ],
      "name": "tokenURI",
      "outputs": [
        {
          "internalType": "string",
          "name": "",
          "type": "string"
        }
      ],
      "stateMutability": "view",
      "type": "function"
    },
    {
      "inputs": [
        {
          "internalType": "address",
          "name": "from",
          "type": "address"
        },
        {
          "internalType": "address",
          "name": "to",
          "type": "address"
        },
        {
          "internalType": "uint256",
          "name": "tokenId",
          "type": "uint256"
        }
      ],
      "name": "transferFrom",
      "outputs": [],
      "stateMutability": "nonpayable",
      "type": "function"
    }
  ],
  "bytecode": "0x60a06040523480156200001157600080fd5b50604051620039763803806200397683398181016040528101906200003791906200057f565b6040518060400160405280600f81526020017f44796e616d696320535647204e465400000000000000000000000000000000008152506040518060400160405280600381526020017f44534e00000000000000000000000000000000000000000000000000000000008152508160009081620000b4919062000864565b508060019081620000c6919062000864565b5050506000600681905550620000e2826200015260201b60201c565b60079081620000f2919062000864565b5062000104816200015260201b60201c565b6008908162000114919062000864565b508273ffffffffffffffffffffffffffffffffffffffff1660808173ffffffffffffffffffffffffffffffffffffffff168152505050505062000b22565b606060006200018d836040516020016200016d91906200098d565b604051602081830303815290604052620001f060201b62000d5a1760201c565b90506040518060400160405280601a81526020017f646174613a696d6167652f7376672b786d6c3b6261736536342c00000000000081525081604051602001620001d9929190620009a6565b604051602081830303815290604052915050919050565b60606000825103620002145760405180602001604052806000815250905062000378565b6000604051806060016040528060408152602001620039366040913990506000600360028551620002469190620009fd565b62000252919062000a89565b600462000260919062000ac1565b90506000602082620002739190620009fd565b67ffffffffffffffff8111156200028f576200028e62000411565b5b6040519080825280601f01601f191660200182016040528015620002c25781602001600182028036833780820191505090505b509050818152600183018586518101602084015b8183101562000333576003830192508251603f8160121c168501518253600182019150603f81600c1c168501518253600182019150603f8160061c168501518253600182019150603f8116850151825360018201915050620002d6565b60038951066001811462000350576002811462000361576200036c565b613d3d60f01b60028303526200036c565b603d60f81b60018303525b50505050508093505050505b919050565b6000604051905090565b600080fd5b600080fd5b600073ffffffffffffffffffffffffffffffffffffffff82169050919050565b6000620003be8262000391565b9050919050565b620003d081620003b1565b8114620003dc57600080fd5b50565b600081519050620003f081620003c5565b92915050565b600080fd5b600080fd5b6000601f19601f8301169050919050565b7f4e487b7100000000000000000000000000000000000000000000000000000000600052604160045260246000fd5b6200044b8262000400565b810181811067ffffffffffffffff821117156200046d576200046c62000411565b5b80604052505050565b6000620004826200037d565b905062000490828262000440565b919050565b600067ffffffffffffffff821115620004b357620004b262000411565b5b620004be8262000400565b9050602081019050919050565b60005b83811015620004eb578082015181840152602081019050620004ce565b83811115620004fb576000848401525b50505050565b600062000518620005128462000495565b62000476565b905082815260208101848484011115620005375762000536620003fb565b5b62000544848285620004cb565b509392505050565b600082601f830112620005645762000563620003f6565b5b81516200057684826020860162000501565b91505092915050565b6000806000606084860312156200059b576200059a62000387565b5b6000620005ab86828701620003df565b935050602084015167ffffffffffffffff811115620005cf57620005ce6200038c565b5b620005dd868287016200054c565b925050604084015167ffffffffffffffff8111156200060157620006006200038c565b5b6200060f868287016200054c565b9150509250925092565b600081519050919050565b7f4e487b7100000000000000000000000000000000000000000000000000000000600052602260045260246000fd5b600060028204905060018216806200066c57607f821691505b60208210810362000682576200068162000624565b5b50919050565b60008190508160005260206000209050919050565b60006020601f8301049050919050565b600082821b905092915050565b600060088302620006ec7fffffffffffffffffffffffffffffffffffffffffffffffffffffffffffffffff82620006ad565b620006f88683620006ad565b95508019841693508086168417925050509392505050565b6000819050919050565b6000819050919050565b6000620007456200073f620007398462000710565b6200071a565b62000710565b9050919050565b6000819050919050565b620007618362000724565b6200077962000770826200074c565b848454620006ba565b825550505050565b600090565b6200079062000781565b6200079d81848462000756565b505050565b5b81811015620007c557620007b960008262000786565b600181019050620007a3565b5050565b601f8211156200081457620007de8162000688565b620007e9846200069d565b81016020851015620007f9578190505b6200081162000808856200069d565b830182620007a2565b50505b505050565b600082821c905092915050565b6000620008396000198460080262000819565b1980831691505092915050565b600062000854838362000826565b9150826002028217905092915050565b6200086f8262000619565b67ffffffffffffffff8111156200088b576200088a62000411565b5b62000897825462000653565b620008a4828285620007c9565b600060209050601f831160018114620008dc5760008415620008c7578287015190505b620008d3858262000846565b86555062000943565b601f198416620008ec8662000688565b60005b828110156200091657848901518255600182019150602085019450602081019050620008ef565b8683101562000936578489015162000932601f89168262000826565b8355505b6001600288020188555050505b505050505050565b600081905092915050565b6000620009638262000619565b6200096f81856200094b565b935062000981818560208601620004cb565b80840191505092915050565b60006200099b828462000956565b915081905092915050565b6000620009b4828562000956565b9150620009c2828462000956565b91508190509392505050565b7f4e487b7100000000000000000000000000000000000000000000000000000000600052601160045260246000fd5b600062000a0a8262000710565b915062000a178362000710565b9250827fffffffffffffffffffffffffffffffffffffffffffffffffffffffffffffffff0382111562000a4f5762000a4e620009ce565b5b828201905092915050565b7f4e487b7100000000000000000000000000000000000000000000000000000000600052601260045260246000fd5b600062000a968262000710565b915062000aa38362000710565b92508262000ab65762000ab562000a5a565b5b828204905092915050565b600062000ace8262000710565b915062000adb8362000710565b9250817fffffffffffffffffffffffffffffffffffffffffffffffffffffffffffffffff048311821515161562000b175762000b16620009ce565b5b828202905092915050565b608051612df862000b3e6000396000610a820152612df86000f3fe608060405234801561001057600080fd5b50600436106101005760003560e01c80636352211e11610097578063b88d4fde11610066578063b88d4fde146102bd578063c87b56dd146102d9578063e425aded14610309578063e985e9c51461033957610100565b80636352211e1461022357806370a082311461025357806395d89b4114610283578063a22cb465146102a157610100565b80631e930812116100d35780631e9308121461019f57806323b872dd146101bb57806330d871c6146101d757806342842e0e1461020757610100565b806301ffc9a71461010557806306fdde0314610135578063081812fc14610153578063095ea7b314610183575b600080fd5b61011f600480360381019061011a9190611a26565b610369565b60405161012c9190611a6e565b60405180910390f35b61013d61044b565b60405161014a9190611b22565b60405180910390f35b61016d60048036038101906101689190611b7a565b6104dd565b60405161017a9190611be8565b60405180910390f35b61019d60048036038101906101989190611c2f565b610523565b005b6101b960048036038101906101b49190611ca5565b61063a565b005b6101d560048036038101906101d09190611cd2565b6106b5565b005b6101f160048036038101906101ec9190611e5a565b610715565b6040516101fe9190611b22565b60405180910390f35b610221600480360381019061021c9190611cd2565b6107a2565b005b61023d60048036038101906102389190611b7a565b6107c2565b60405161024a9190611be8565b60405180910390f35b61026d60048036038101906102689190611ea3565b610873565b60405161027a9190611edf565b60405180910390f35b61028b61092a565b6040516102989190611b22565b60405180910390f35b6102bb60048036038101906102b69190611f26565b6109bc565b005b6102d760048036038101906102d29190612007565b6109d2565b005b6102f360048036038101906102ee9190611b7a565b610a34565b6040516103009190611b22565b60405180910390f35b610323600480360381019061031e9190611b7a565b610cae565b6040516103309190612099565b60405180910390f35b610353600480360381019061034e91906120b4565b610cc6565b6040516103609190611a6e565b60405180910390f35b60007f80ac58cd000000000000000000000000000000000000000000000000000000007bffffffffffffffffffffffffffffffffffffffffffffffffffffffff1916827bffffffffffffffffffffffffffffffffffffffffffffffffffffffff1916148061043457507f5b5e139f000000000000000000000000000000000000000000000000000000007bffffffffffffffffffffffffffffffffffffffffffffffffffffffff1916827bffffffffffffffffffffffffffffffffffffffffffffffffffffffff1916145b80610444575061044382610ed2565b5b9050919050565b60606000805461045a90612123565b80601f016020809104026020016040519081016040528092919081815260200182805461048690612123565b80156104d35780601f106104a8576101008083540402835291602001916104d3565b820191906000526020600020905b8154815290600101906020018083116104b657829003601f168201915b5050505050905090565b60006104e882610f3c565b6004600083815260200190815260200160002060009054906101000a900473ffffffffffffffffffffffffffffffffffffffff169050919050565b600061052e826107c2565b90508073ffffffffffffffffffffffffffffffffffffffff168373ffffffffffffffffffffffffffffffffffffffff160361059e576040517f08c379a0000000000000000000000000000000000000000000000000000000008152600401610595906121c6565b60405180910390fd5b8073ffffffffffffffffffffffffffffffffffffffff166105bd610f87565b73ffffffffffffffffffffffffffffffffffffffff1614806105ec57506105eb816105e6610f87565b610cc6565b5b61062b576040517f08c379a000000000000000000000000000000000000000000000000000000000815260040161062290612258565b60405180910390fd5b6106358383610f8f565b505050565b80600960006006548152602001908152602001600020819055506006547f882d3b5a729a8bb95cf6c0083c99b42ecd9637123d4425bd7b768877fd8af8b0826040516106869190612099565b60405180910390a261069a33600654611048565b600660008154809291906106ad906122a7565b919050555050565b6106c66106c0610f87565b82611066565b610705576040517f08c379a00000000000000000000000000000000000000000000000000000000081526004016106fc90612361565b60405180910390fd5b6107108383836110fb565b505050565b606060006107418360405160200161072d91906123bd565b604051602081830303815290604052610d5a565b90506040518060400160405280601a81526020017f646174613a696d6167652f7376672b786d6c3b6261736536342c0000000000008152508160405160200161078b9291906123d4565b604051602081830303815290604052915050919050565b6107bd838383604051806020016040528060008152506109d2565b505050565b6000806002600084815260200190815260200160002060009054906101000a900473ffffffffffffffffffffffffffffffffffffffff169050600073ffffffffffffffffffffffffffffffffffffffff168173ffffffffffffffffffffffffffffffffffffffff160361086a576040517f08c379a000000000000000000000000000000000000000000000000000000000815260040161086190612444565b60405180910390fd5b80915050919050565b60008073ffffffffffffffffffffffffffffffffffffffff168273ffffffffffffffffffffffffffffffffffffffff16036108e3576040517f08c379a00000000000000000000000000000000000000000000000000000000081526004016108da906124d6565b60405180910390fd5b600360008373ffffffffffffffffffffffffffffffffffffffff1673ffffffffffffffffffffffffffffffffffffffff168152602001908152602001600020549050919050565b60606001805461093990612123565b80601f016020809104026020016040519081016040528092919081815260200182805461096590612123565b80156109b25780601f10610987576101008083540402835291602001916109b2565b820191906000526020600020905b81548152906001019060200180831161099557829003601f168201915b5050505050905090565b6109ce6109c7610f87565b8383611361565b5050565b6109e36109dd610f87565b83611066565b610a22576040517f08c379a0000000000000000000000000000000000000000000000000000000008152600401610a1990612361565b60405180910390fd5b610a2e848484846114cd565b50505050565b6060610a3f82611529565b610a7e576040517f08c379a0000000000000000000000000000000000000000000000000000000008152600401610a7590612542565b60405180910390fd5b60007f000000000000000000000000000000000000000000000000000000000000000073ffffffffffffffffffffffffffffffffffffffff1663feaf968c6040518163ffffffff1660e01b815260040160a060405180830381865afa158015610aeb573d6000803e3d6000fd5b505050506040513d601f19601f82011682018060405250810190610b0f91906125ce565b505050915050600060078054610b2490612123565b80601f0160208091040260200160405190810160405280929190818152602001828054610b5090612123565b8015610b9d5780601f10610b7257610100808354040283529160200191610b9d565b820191906000526020600020905b815481529060010190602001808311610b8057829003601f168201915b5050505050905060096000858152602001908152602001600020548212610c4c5760088054610bcb90612123565b80601f0160208091040260200160405190810160405280929190818152602001828054610bf790612123565b8015610c445780601f10610c1957610100808354040283529160200191610c44565b820191906000526020600020905b815481529060010190602001808311610c2757829003601f168201915b505050505090505b610c54611595565b610c85610c5f61044b565b83604051602001610c71929190612811565b604051602081830303815290604052610d5a565b604051602001610c969291906123d4565b60405160208183030381529060405292505050919050565b60096020528060005260406000206000915090505481565b6000600560008473ffffffffffffffffffffffffffffffffffffffff1673ffffffffffffffffffffffffffffffffffffffff16815260200190815260200160002060008373ffffffffffffffffffffffffffffffffffffffff1673ffffffffffffffffffffffffffffffffffffffff16815260200190815260200160002060009054906101000a900460ff16905092915050565b60606000825103610d7c57604051806020016040528060008152509050610ecd565b6000604051806060016040528060408152602001612d836040913990506000600360028551610dab9190612861565b610db591906128e6565b6004610dc19190612917565b90506000602082610dd29190612861565b67ffffffffffffffff811115610deb57610dea611d2f565b5b6040519080825280601f01601f191660200182016040528015610e1d5781602001600182028036833780820191505090505b509050818152600183018586518101602084015b81831015610e8c576003830192508251603f8160121c168501518253600182019150603f81600c1c168501518253600182019150603f8160061c168501518253600182019150603f8116850151825360018201915050610e31565b600389510660018114610ea65760028114610eb657610ec1565b613d3d60f01b6002830352610ec1565b603d60f81b60018303525b50505050508093505050505b919050565b60007f01ffc9a7000000000000000000000000000000000000000000000000000000007bffffffffffffffffffffffffffffffffffffffffffffffffffffffff1916827bffffffffffffffffffffffffffffffffffffffffffffffffffffffff1916149050919050565b610f4581611529565b610f84576040517f08c379a0000000000000000000000000000000000000000000000000000000008152600401610f7b90612444565b60405180910390fd5b50565b600033905090565b816004600083815260200190815260200160002060006101000a81548173ffffffffffffffffffffffffffffffffffffffff021916908373ffffffffffffffffffffffffffffffffffffffff160217905550808273ffffffffffffffffffffffffffffffffffffffff16611002836107c2565b73ffffffffffffffffffffffffffffffffffffffff167f8c5be1e5ebec7d5bd14f71427d1e84f3dd0314c0f7b2291e5b200ac8c7c3b92560405160405180910390a45050565b6110628282604051806020016040528060008152506115d2565b5050565b600080611072836107c2565b90508073ffffffffffffffffffffffffffffffffffffffff168473ffffffffffffffffffffffffffffffffffffffff1614806110b457506110b38185610cc6565b5b806110f257508373ffffffffffffffffffffffffffffffffffffffff166110da846104dd565b73ffffffffffffffffffffffffffffffffffffffff16145b91505092915050565b8273ffffffffffffffffffffffffffffffffffffffff1661111b826107c2565b73ffffffffffffffffffffffffffffffffffffffff1614611171576040517f08c379a0000000000000000000000000000000000000000000000000000000008152600401611168906129e3565b60405180910390fd5b600073ffffffffffffffffffffffffffffffffffffffff168273ffffffffffffffffffffffffffffffffffffffff16036111e0576040517f08c379a00000000000000000000000000000000000000000000000000000000081526004016111d790612a75565b60405180910390fd5b6111eb83838361162d565b6111f6600082610f8f565b6001600360008573ffffffffffffffffffffffffffffffffffffffff1673ffffffffffffffffffffffffffffffffffffffff16815260200190815260200160002060008282546112469190612a95565b925050819055506001600360008473ffffffffffffffffffffffffffffffffffffffff1673ffffffffffffffffffffffffffffffffffffffff168152602001908152602001600020600082825461129d9190612861565b92505081905550816002600083815260200190815260200160002060006101000a81548173ffffffffffffffffffffffffffffffffffffffff021916908373ffffffffffffffffffffffffffffffffffffffff160217905550808273ffffffffffffffffffffffffffffffffffffffff168473ffffffffffffffffffffffffffffffffffffffff167fddf252ad1be2c89b69c2b068fc378daa952ba7f163c4a11628f55a4df523b3ef60405160405180910390a461135c838383611632565b505050565b8173ffffffffffffffffffffffffffffffffffffffff168373ffffffffffffffffffffffffffffffffffffffff16036113cf576040517f08c379a00000000000000000000000000000000000000000000000000000000081526004016113c690612b15565b60405180910390fd5b80600560008573ffffffffffffffffffffffffffffffffffffffff1673ffffffffffffffffffffffffffffffffffffffff16815260200190815260200160002060008473ffffffffffffffffffffffffffffffffffffffff1673ffffffffffffffffffffffffffffffffffffffff16815260200190815260200160002060006101000a81548160ff0219169083151502179055508173ffffffffffffffffffffffffffffffffffffffff168373ffffffffffffffffffffffffffffffffffffffff167f17307eab39ab6107e8899845ad3d59bd9653f200f220920489ca2b5937696c31836040516114c09190611a6e565b60405180910390a3505050565b6114d88484846110fb565b6114e484848484611637565b611523576040517f08c379a000000000000000000000000000000000000000000000000000000000815260040161151a90612ba7565b60405180910390fd5b50505050565b60008073ffffffffffffffffffffffffffffffffffffffff166002600084815260200190815260200160002060009054906101000a900473ffffffffffffffffffffffffffffffffffffffff1673ffffffffffffffffffffffffffffffffffffffff1614159050919050565b60606040518060400160405280601d81526020017f646174613a6170706c69636174696f6e2f6a736f6e3b6261736536342c000000815250905090565b6115dc83836117be565b6115e96000848484611637565b611628576040517f08c379a000000000000000000000000000000000000000000000000000000000815260040161161f90612ba7565b60405180910390fd5b505050565b505050565b505050565b60006116588473ffffffffffffffffffffffffffffffffffffffff16611997565b156117b1578373ffffffffffffffffffffffffffffffffffffffff1663150b7a02611681610f87565b8786866040518563ffffffff1660e01b81526004016116a39493929190612c1c565b6020604051808303816000875af19250505080156116df57506040513d601f19601f820116820180604052508101906116dc9190612c7d565b60015b611761573d806000811461170f576040519150601f19603f3d011682016040523d82523d6000602084013e611714565b606091505b506000815103611759576040517f08c379a000000000000000000000000000000000000000000000000000000000815260040161175090612ba7565b60405180910390fd5b805181602001fd5b63150b7a0260e01b7bffffffffffffffffffffffffffffffffffffffffffffffffffffffff1916817bffffffffffffffffffffffffffffffffffffffffffffffffffffffff1916149150506117b6565b600190505b949350505050565b600073ffffffffffffffffffffffffffffffffffffffff168273ffffffffffffffffffffffffffffffffffffffff160361182d576040517f08c379a000000000000000000000000000000000000000000000000000000000815260040161182490612cf6565b60405180910390fd5b61183681611529565b15611876576040517f08c379a000000000000000000000000000000000000000000000000000000000815260040161186d90612d62565b60405180910390fd5b6118826000838361162d565b6001600360008473ffffffffffffffffffffffffffffffffffffffff1673ffffffffffffffffffffffffffffffffffffffff16815260200190815260200160002060008282546118d29190612861565b92505081905550816002600083815260200190815260200160002060006101000a81548173ffffffffffffffffffffffffffffffffffffffff021916908373ffffffffffffffffffffffffffffffffffffffff160217905550808273ffffffffffffffffffffffffffffffffffffffff16600073ffffffffffffffffffffffffffffffffffffffff167fddf252ad1be2c89b69c2b068fc378daa952ba7f163c4a11628f55a4df523b3ef60405160405180910390a461199360008383611632565b5050565b6000808273ffffffffffffffffffffffffffffffffffffffff163b119050919050565b6000604051905090565b600080fd5b600080fd5b60007fffffffff0000000000000000000000000000000000000000000000000000000082169050919050565b611a03816119ce565b8114611a0e57600080fd5b50565b600081359050611a20816119fa565b92915050565b600060208284031215611a3c57611a3b6119c4565b5b6000611a4a84828501611a11565b91505092915050565b60008115159050919050565b611a6881611a53565b82525050565b6000602082019050611a836000830184611a5f565b92915050565b600081519050919050565b600082825260208201905092915050565b60005b83811015611ac3578082015181840152602081019050611aa8565b83811115611ad2576000848401525b50505050565b6000601f19601f8301169050919050565b6000611af482611a89565b611afe8185611a94565b9350611b0e818560208601611aa5565b611b1781611ad8565b840191505092915050565b60006020820190508181036000830152611b3c8184611ae9565b905092915050565b6000819050919050565b611b5781611b44565b8114611b6257600080fd5b50565b600081359050611b7481611b4e565b92915050565b600060208284031215611b9057611b8f6119c4565b5b6000611b9e84828501611b65565b91505092915050565b600073ffffffffffffffffffffffffffffffffffffffff82169050919050565b6000611bd282611ba7565b9050919050565b611be281611bc7565b82525050565b6000602082019050611bfd6000830184611bd9565b92915050565b611c0c81611bc7565b8114611c1757600080fd5b50565b600081359050611c2981611c03565b92915050565b60008060408385031215611c4657611c456119c4565b5b6000611c5485828601611c1a565b9250506020611c6585828601611b65565b9150509250929050565b6000819050919050565b611c8281611c6f565b8114611c8d57600080fd5b50565b600081359050611c9f81611c79565b92915050565b600060208284031215611cbb57611cba6119c4565b5b6000611cc984828501611c90565b91505092915050565b600080600060608486031215611ceb57611cea6119c4565b5b6000611cf986828701611c1a565b9350506020611d0a86828701611c1a565b9250506040611d1b86828701611b65565b9150509250925092565b600080fd5b600080fd5b7f4e487b7100000000000000000000000000000000000000000000000000000000600052604160045260246000fd5b611d6782611ad8565b810181811067ffffffffffffffff82111715611d8657611d85611d2f565b5b80604052505050565b6000611d996119ba565b9050611da58282611d5e565b919050565b600067ffffffffffffffff821115611dc557611dc4611d2f565b5b611dce82611ad8565b9050602081019050919050565b82818337600083830152505050565b6000611dfd611df884611daa565b611d8f565b905082815260208101848484011115611e1957611e18611d2a565b5b611e24848285611ddb565b509392505050565b600082601f830112611e4157611e40611d25565b5b8135611e51848260208601611dea565b91505092915050565b600060208284031215611e7057611e6f6119c4565b5b600082013567ffffffffffffffff811115611e8e57611e8d6119c9565b5b611e9a84828501611e2c565b91505092915050565b600060208284031215611eb957611eb86119c4565b5b6000611ec784828501611c1a565b91505092915050565b611ed981611b44565b82525050565b6000602082019050611ef46000830184611ed0565b92915050565b611f0381611a53565b8114611f0e57600080fd5b50565b600081359050611f2081611efa565b92915050565b60008060408385031215611f3d57611f3c6119c4565b5b6000611f4b85828601611c1a565b9250506020611f5c85828601611f11565b9150509250929050565b600067ffffffffffffffff821115611f8157611f80611d2f565b5b611f8a82611ad8565b9050602081019050919050565b6000611faa611fa584611f66565b611d8f565b905082815260208101848484011115611fc657611fc5611d2a565b5b611fd1848285611ddb565b509392505050565b600082601f830112611fee57611fed611d25565b5b8135611ffe848260208601611f97565b91505092915050565b60008060008060808587031215612021576120206119c4565b5b600061202f87828801611c1a565b945050602061204087828801611c1a565b935050604061205187828801611b65565b925050606085013567ffffffffffffffff811115612072576120716119c9565b5b61207e87828801611fd9565b91505092959194509250565b61209381611c6f565b82525050565b60006020820190506120ae600083018461208a565b92915050565b600080604083850312156120cb576120ca6119c4565b5b60006120d985828601611c1a565b92505060206120ea85828601611c1a565b9150509250929050565b7f4e487b7100000000000000000000000000000000000000000000000000000000600052602260045260246000fd5b6000600282049050600182168061213b57607f821691505b60208210810361214e5761214d6120f4565b5b50919050565b7f4552433732313a20617070726f76616c20746f2063757272656e74206f776e6560008201527f7200000000000000000000000000000000000000000000000000000000000000602082015250565b60006121b0602183611a94565b91506121bb82612154565b604082019050919050565b600060208201905081810360008301526121df816121a3565b9050919050565b7f4552433732313a20617070726f76652063616c6c6572206973206e6f7420746f60008201527f6b656e206f776e6572206e6f7220617070726f76656420666f7220616c6c0000602082015250565b6000612242603e83611a94565b915061224d826121e6565b604082019050919050565b6000602082019050818103600083015261227181612235565b9050919050565b7f4e487b7100000000000000000000000000000000000000000000000000000000600052601160045260246000fd5b60006122b282611b44565b91507fffffffffffffffffffffffffffffffffffffffffffffffffffffffffffffffff82036122e4576122e3612278565b5b600182019050919050565b7f4552433732313a2063616c6c6572206973206e6f7420746f6b656e206f776e6560008201527f72206e6f7220617070726f766564000000000000000000000000000000000000602082015250565b600061234b602e83611a94565b9150612356826122ef565b604082019050919050565b6000602082019050818103600083015261237a8161233e565b9050919050565b600081905092915050565b600061239782611a89565b6123a18185612381565b93506123b1818560208601611aa5565b80840191505092915050565b60006123c9828461238c565b915081905092915050565b60006123e0828561238c565b91506123ec828461238c565b91508190509392505050565b7f4552433732313a20696e76616c696420746f6b656e2049440000000000000000600082015250565b600061242e601883611a94565b9150612439826123f8565b602082019050919050565b6000602082019050818103600083015261245d81612421565b9050919050565b7f4552433732313a2061646472657373207a65726f206973206e6f74206120766160008201527f6c6964206f776e65720000000000000000000000000000000000000000000000602082015250565b60006124c0602983611a94565b91506124cb82612464565b604082019050919050565b600060208201905081810360008301526124ef816124b3565b9050919050565b7f55524920517565727920666f72206e6f6e6578697374656e7420746f6b656e00600082015250565b600061252c601f83611a94565b9150612537826124f6565b602082019050919050565b6000602082019050818103600083015261255b8161251f565b9050919050565b600069ffffffffffffffffffff82169050919050565b61258181612562565b811461258c57600080fd5b50565b60008151905061259e81612578565b92915050565b6000815190506125b381611c79565b92915050565b6000815190506125c881611b4e565b92915050565b600080600080600060a086880312156125ea576125e96119c4565b5b60006125f88882890161258f565b9550506020612609888289016125a4565b945050604061261a888289016125b9565b935050606061262b888289016125b9565b925050608061263c8882890161258f565b9150509295509295909350565b7f7b226e616d65223a220000000000000000000000000000000000000000000000600082015250565b600061267f600983612381565b915061268a82612649565b600982019050919050565b7f222c20226465736372697074696f6e223a22416e204e4654207468617420636860008201527f616e676573206261736564206f6e2074686520436861696e6c696e6b2046656560208201527f64222c2000000000000000000000000000000000000000000000000000000000604082015250565b6000612717604483612381565b915061272282612695565b604482019050919050565b7f2261747472696275746573223a205b7b2274726169745f74797065223a20226360008201527f6f6f6c6e657373222c202276616c7565223a203130307d5d2c2022696d61676560208201527f223a220000000000000000000000000000000000000000000000000000000000604082015250565b60006127af604383612381565b91506127ba8261272d565b604382019050919050565b7f227d000000000000000000000000000000000000000000000000000000000000600082015250565b60006127fb600283612381565b9150612806826127c5565b600282019050919050565b600061281c82612672565b9150612828828561238c565b91506128338261270a565b915061283e826127a2565b915061284a828461238c565b9150612855826127ee565b91508190509392505050565b600061286c82611b44565b915061287783611b44565b9250827fffffffffffffffffffffffffffffffffffffffffffffffffffffffffffffffff038211156128ac576128ab612278565b5b828201905092915050565b7f4e487b7100000000000000000000000000000000000000000000000000000000600052601260045260246000fd5b60006128f182611b44565b91506128fc83611b44565b92508261290c5761290b6128b7565b5b828204905092915050565b600061292282611b44565b915061292d83611b44565b9250817fffffffffffffffffffffffffffffffffffffffffffffffffffffffffffffffff048311821515161561296657612965612278565b5b828202905092915050565b7f4552433732313a207472616e736665722066726f6d20696e636f72726563742060008201527f6f776e6572000000000000000000000000000000000000000000000000000000602082015250565b60006129cd602583611a94565b91506129d882612971565b604082019050919050565b600060208201905081810360008301526129fc816129c0565b9050919050565b7f4552433732313a207472616e7366657220746f20746865207a65726f2061646460008201527f7265737300000000000000000000000000000000000000000000000000000000602082015250565b6000612a5f602483611a94565b9150612a6a82612a03565b604082019050919050565b60006020820190508181036000830152612a8e81612a52565b9050919050565b6000612aa082611b44565b9150612aab83611b44565b925082821015612abe57612abd612278565b5b828203905092915050565b7f4552433732313a20617070726f766520746f2063616c6c657200000000000000600082015250565b6000612aff601983611a94565b9150612b0a82612ac9565b602082019050919050565b60006020820190508181036000830152612b2e81612af2565b9050919050565b7f4552433732313a207472616e7366657220746f206e6f6e20455243373231526560008201527f63656976657220696d706c656d656e7465720000000000000000000000000000602082015250565b6000612b91603283611a94565b9150612b9c82612b35565b604082019050919050565b60006020820190508181036000830152612bc081612b84565b9050919050565b600081519050919050565b600082825260208201905092915050565b6000612bee82612bc7565b612bf88185612bd2565b9350612c08818560208601611aa5565b612c1181611ad8565b840191505092915050565b6000608082019050612c316000830187611bd9565b612c3e6020830186611bd9565b612c4b6040830185611ed0565b8181036060830152612c5d8184612be3565b905095945050505050565b600081519050612c77816119fa565b92915050565b600060208284031215612c9357612c926119c4565b5b6000612ca184828501612c68565b91505092915050565b7f4552433732313a206d696e7420746f20746865207a65726f2061646472657373600082015250565b6000612ce0602083611a94565b9150612ceb82612caa565b602082019050919050565b60006020820190508181036000830152612d0f81612cd3565b9050919050565b7f4552433732313a20746f6b656e20616c7265616479206d696e74656400000000600082015250565b6000612d4c601c83611a94565b9150612d5782612d16565b602082019050919050565b60006020820190508181036000830152612d7b81612d3f565b905091905056fe4142434445464748494a4b4c4d4e4f505152535455565758595a6162636465666768696a6b6c6d6e6f707172737475767778797a303132333435363738392b2fa26469706673582212202c2630d3c7e928009a067aa6fd3cd344b7dd6ecb0acef7c8671fe3c1f19cec3d64736f6c634300080f00334142434445464748494a4b4c4d4e4f505152535455565758595a6162636465666768696a6b6c6d6e6f707172737475767778797a303132333435363738392b2f",
  "linkReferences": {},
  "deployedLinkReferences": {}
}