{
  "_format": "hh-sol-artifact-1",
  "contractName": "RandomIpfsNft",
  "sourceName": "contracts/RandomIpfsNft.sol",
  "abi": [
    {
      "inputs": [
        {
          "internalType": "address",
          "name": "vrfCoordinatorV2",
          "type": "address"
        },
        {
          "internalType": "uint64",
          "name": "subscriptionId",
          "type": "uint64"
        },
        {
          "internalType": "bytes32",
          "name": "gasLane",
          "type": "bytes32"
        },
        {
          "internalType": "uint32",
          "name": "callbackGasLimit",
          "type": "uint32"
        },
        {
          "internalType": "string[3]",
          "name": "dogTokenURIs",
          "type": "string[3]"
        },
        {
          "internalType": "uint256",
          "name": "mintFee",
          "type": "uint256"
        }
      ],
      "stateMutability": "nonpayable",
      "type": "constructor"
    },
    {
      "inputs": [
        {
          "internalType": "address",
          "name": "have",
          "type": "address"
        },
        {
          "internalType": "address",
          "name": "want",
          "type": "address"
        }
      ],
      "name": "OnlyCoordinatorCanFulfill",
      "type": "error"
    },
    {
      "inputs": [],
      "name": "RandomIpfsNft__NeedMoreETHSent",
      "type": "error"
    },
    {
      "inputs": [],
      "name": "RandomIpfsNft__RangeOutOfBounds",
      "type": "error"
    },
    {
      "inputs": [],
      "name": "RandomIpfsNft__TransactionFailed",
      "type": "error"
    },
    {
      "anonymous": false,
      "inputs": [
        {
          "indexed": true,
          "internalType": "address",
          "name": "owner",
          "type": "address"
        },
        {
          "indexed": true,
          "internalType": "address",
          "name": "approved",
          "type": "address"
        },
        {
          "indexed": true,
          "internalType": "uint256",
          "name": "tokenId",
          "type": "uint256"
        }
      ],
      "name": "Approval",
      "type": "event"
    },
    {
      "anonymous": false,
      "inputs": [
        {
          "indexed": true,
          "internalType": "address",
          "name": "owner",
          "type": "address"
        },
        {
          "indexed": true,
          "internalType": "address",
          "name": "operator",
          "type": "address"
        },
        {
          "indexed": false,
          "internalType": "bool",
          "name": "approved",
          "type": "bool"
        }
      ],
      "name": "ApprovalForAll",
      "type": "event"
    },
    {
      "anonymous": false,
      "inputs": [
        {
          "indexed": false,
          "internalType": "enum RandomIpfsNft.Breed",
          "name": "dogBreed",
          "type": "uint8"
        },
        {
          "indexed": false,
          "internalType": "address",
          "name": "minter",
          "type": "address"
        }
      ],
      "name": "NftMinted",
      "type": "event"
    },
    {
      "anonymous": false,
      "inputs": [
        {
          "indexed": true,
          "internalType": "uint256",
          "name": "requestId",
          "type": "uint256"
        },
        {
          "indexed": false,
          "internalType": "address",
          "name": "requester",
          "type": "address"
        }
      ],
      "name": "NftRequested",
      "type": "event"
    },
    {
      "anonymous": false,
      "inputs": [
        {
          "indexed": true,
          "internalType": "address",
          "name": "previousOwner",
          "type": "address"
        },
        {
          "indexed": true,
          "internalType": "address",
          "name": "newOwner",
          "type": "address"
        }
      ],
      "name": "OwnershipTransferred",
      "type": "event"
    },
    {
      "anonymous": false,
      "inputs": [
        {
          "indexed": true,
          "internalType": "address",
          "name": "from",
          "type": "address"
        },
        {
          "indexed": true,
          "internalType": "address",
          "name": "to",
          "type": "address"
        },
        {
          "indexed": true,
          "internalType": "uint256",
          "name": "tokenId",
          "type": "uint256"
        }
      ],
      "name": "Transfer",
      "type": "event"
    },
    {
      "inputs": [
        {
          "internalType": "address",
          "name": "to",
          "type": "address"
        },
        {
          "internalType": "uint256",
          "name": "tokenId",
          "type": "uint256"
        }
      ],
      "name": "approve",
      "outputs": [],
      "stateMutability": "nonpayable",
      "type": "function"
    },
    {
      "inputs": [
        {
          "internalType": "address",
          "name": "owner",
          "type": "address"
        }
      ],
      "name": "balanceOf",
      "outputs": [
        {
          "internalType": "uint256",
          "name": "",
          "type": "uint256"
        }
      ],
      "stateMutability": "view",
      "type": "function"
    },
    {
      "inputs": [
        {
          "internalType": "uint256",
          "name": "tokenId",
          "type": "uint256"
        }
      ],
      "name": "getApproved",
      "outputs": [
        {
          "internalType": "address",
          "name": "",
          "type": "address"
        }
      ],
      "stateMutability": "view",
      "type": "function"
    },
    {
      "inputs": [
        {
          "internalType": "uint256",
          "name": "moddedRng",
          "type": "uint256"
        }
      ],
      "name": "getBreedFromModdedRng",
      "outputs": [
        {
          "internalType": "enum RandomIpfsNft.Breed",
          "name": "",
          "type": "uint8"
        }
      ],
      "stateMutability": "pure",
      "type": "function"
    },
    {
      "inputs": [],
      "name": "getChanceArray",
      "outputs": [
        {
          "internalType": "uint256[3]",
          "name": "",
          "type": "uint256[3]"
        }
      ],
      "stateMutability": "pure",
      "type": "function"
    },
    {
      "inputs": [
        {
          "internalType": "uint256",
          "name": "index",
          "type": "uint256"
        }
      ],
      "name": "getDogTokenUris",
      "outputs": [
        {
          "internalType": "string",
          "name": "",
          "type": "string"
        }
      ],
      "stateMutability": "view",
      "type": "function"
    },
    {
      "inputs": [],
      "name": "getMintFee",
      "outputs": [
        {
          "internalType": "uint256",
          "name": "",
          "type": "uint256"
        }
      ],
      "stateMutability": "view",
      "type": "function"
    },
    {
      "inputs": [],
      "name": "getTokenCounter",
      "outputs": [
        {
          "internalType": "uint256",
          "name": "",
          "type": "uint256"
        }
      ],
      "stateMutability": "view",
      "type": "function"
    },
    {
      "inputs": [
        {
          "internalType": "address",
          "name": "owner",
          "type": "address"
        },
        {
          "internalType": "address",
          "name": "operator",
          "type": "address"
        }
      ],
      "name": "isApprovedForAll",
      "outputs": [
        {
          "internalType": "bool",
          "name": "",
          "type": "bool"
        }
      ],
      "stateMutability": "view",
      "type": "function"
    },
    {
      "inputs": [],
      "name": "name",
      "outputs": [
        {
          "internalType": "string",
          "name": "",
          "type": "string"
        }
      ],
      "stateMutability": "view",
      "type": "function"
    },
    {
      "inputs": [],
      "name": "owner",
      "outputs": [
        {
          "internalType": "address",
          "name": "",
          "type": "address"
        }
      ],
      "stateMutability": "view",
      "type": "function"
    },
    {
      "inputs": [
        {
          "internalType": "uint256",
          "name": "tokenId",
          "type": "uint256"
        }
      ],
      "name": "ownerOf",
      "outputs": [
        {
          "internalType": "address",
          "name": "",
          "type": "address"
        }
      ],
      "stateMutability": "view",
      "type": "function"
    },
    {
      "inputs": [
        {
          "internalType": "uint256",
          "name": "requestId",
          "type": "uint256"
        },
        {
          "internalType": "uint256[]",
          "name": "randomWords",
          "type": "uint256[]"
        }
      ],
      "name": "rawFulfillRandomWords",
      "outputs": [],
      "stateMutability": "nonpayable",
      "type": "function"
    },
    {
      "inputs": [],
      "name": "renounceOwnership",
      "outputs": [],
      "stateMutability": "nonpayable",
      "type": "function"
    },
    {
      "inputs": [],
      "name": "requestNft",
      "outputs": [
        {
          "internalType": "uint256",
          "name": "requestId",
          "type": "uint256"
        }
      ],
      "stateMutability": "payable",
      "type": "function"
    },
    {
      "inputs": [
        {
          "internalType": "uint256",
          "name": "",
          "type": "uint256"
        }
      ],
      "name": "s_requestIdToSender",
      "outputs": [
        {
          "internalType": "address",
          "name": "",
          "type": "address"
        }
      ],
      "stateMutability": "view",
      "type": "function"
    },
    {
      "inputs": [
        {
          "internalType": "address",
          "name": "from",
          "type": "address"
        },
        {
          "internalType": "address",
          "name": "to",
          "type": "address"
        },
        {
          "internalType": "uint256",
          "name": "tokenId",
          "type": "uint256"
        }
      ],
      "name": "safeTransferFrom",
      "outputs": [],
      "stateMutability": "nonpayable",
      "type": "function"
    },
    {
      "inputs": [
        {
          "internalType": "address",
          "name": "from",
          "type": "address"
        },
        {
          "internalType": "address",
          "name": "to",
          "type": "address"
        },
        {
          "internalType": "uint256",
          "name": "tokenId",
          "type": "uint256"
        },
        {
          "internalType": "bytes",
          "name": "data",
          "type": "bytes"
        }
      ],
      "name": "safeTransferFrom",
      "outputs": [],
      "stateMutability": "nonpayable",
      "type": "function"
    },
    {
      "inputs": [
        {
          "internalType": "address",
          "name": "operator",
          "type": "address"
        },
        {
          "internalType": "bool",
          "name": "approved",
          "type": "bool"
        }
      ],
      "name": "setApprovalForAll",
      "outputs": [],
      "stateMutability": "nonpayable",
      "type": "function"
    },
    {
      "inputs": [
        {
          "internalType": "bytes4",
          "name": "interfaceId",
          "type": "bytes4"
        }
      ],
      "name": "supportsInterface",
      "outputs": [
        {
          "internalType": "bool",
          "name": "",
          "type": "bool"
        }
      ],
      "stateMutability": "view",
      "type": "function"
    },
    {
      "inputs": [],
      "name": "symbol",
      "outputs": [
        {
          "internalType": "string",
          "name": "",
          "type": "string"
        }
      ],
      "stateMutability": "view",
      "type": "function"
    },
    {
      "inputs": [
        {
          "internalType": "uint256",
          "name": "tokenId",
          "type": "uint256"
        }
      ],
      "name": "tokenURI",
      "outputs": [
        {
          "internalType": "string",
          "name": "",
          "type": "string"
        }
      ],
      "stateMutability": "view",
      "type": "function"
    },
    {
      "inputs": [
        {
          "internalType": "address",
          "name": "from",
          "type": "address"
        },
        {
          "internalType": "address",
          "name": "to",
          "type": "address"
        },
        {
          "internalType": "uint256",
          "name": "tokenId",
          "type": "uint256"
        }
      ],
      "name": "transferFrom",
      "outputs": [],
      "stateMutability": "nonpayable",
      "type": "function"
    },
    {
      "inputs": [
        {
          "internalType": "address",
          "name": "newOwner",
          "type": "address"
        }
      ],
      "name": "transferOwnership",
      "outputs": [],
      "stateMutability": "nonpayable",
      "type": "function"
    },
    {
      "inputs": [],
      "name": "withdraw",
      "outputs": [],
      "stateMutability": "nonpayable",
      "type": "function"
    }
  ],
  "bytecode": "0x6101406040523480156200001257600080fd5b506040516200482a3803806200482a833981810160405281019062000038919062000759565b6040518060400160405280600f81526020017f52616e646f6d2049706673204e465400000000000000000000000000000000008152506040518060400160405280600381526020017f52494e0000000000000000000000000000000000000000000000000000000000815250878073ffffffffffffffffffffffffffffffffffffffff1660808173ffffffffffffffffffffffffffffffffffffffff1681525050508160009081620000eb919062000a55565b508060019081620000fd919062000a55565b5050506200012062000114620001b660201b60201c565b620001be60201b60201c565b8573ffffffffffffffffffffffffffffffffffffffff1660a08173ffffffffffffffffffffffffffffffffffffffff16815250508467ffffffffffffffff1660c08167ffffffffffffffff16815250508360e081815250508263ffffffff166101008163ffffffff168152505081600a906003620001a092919062000284565b5080610120818152505050505050505062000b3c565b600033905090565b6000600760009054906101000a900473ffffffffffffffffffffffffffffffffffffffff16905081600760006101000a81548173ffffffffffffffffffffffffffffffffffffffff021916908373ffffffffffffffffffffffffffffffffffffffff1602179055508173ffffffffffffffffffffffffffffffffffffffff168173ffffffffffffffffffffffffffffffffffffffff167f8be0079c531659141344cd1fd0a4f28419497f9722a3daafe3b4186f6b6457e060405160405180910390a35050565b828054828255906000526020600020908101928215620002d1579160200282015b82811115620002d0578251829081620002bf919062000a55565b5091602001919060010190620002a5565b5b509050620002e09190620002e4565b5090565b5b80821115620003085760008181620002fe91906200030c565b50600101620002e5565b5090565b5080546200031a906200084e565b6000825580601f106200032e57506200034f565b601f0160209004906000526020600020908101906200034e919062000352565b5b50565b5b808211156200036d57600081600090555060010162000353565b5090565b6000604051905090565b600080fd5b600080fd5b600073ffffffffffffffffffffffffffffffffffffffff82169050919050565b6000620003b28262000385565b9050919050565b620003c481620003a5565b8114620003d057600080fd5b50565b600081519050620003e481620003b9565b92915050565b600067ffffffffffffffff82169050919050565b6200040981620003ea565b81146200041557600080fd5b50565b6000815190506200042981620003fe565b92915050565b6000819050919050565b62000444816200042f565b81146200045057600080fd5b50565b600081519050620004648162000439565b92915050565b600063ffffffff82169050919050565b62000485816200046a565b81146200049157600080fd5b50565b600081519050620004a5816200047a565b92915050565b600080fd5b6000601f19601f8301169050919050565b7f4e487b7100000000000000000000000000000000000000000000000000000000600052604160045260246000fd5b620004fb82620004b0565b810181811067ffffffffffffffff821117156200051d576200051c620004c1565b5b80604052505050565b60006200053262000371565b9050620005408282620004f0565b919050565b600067ffffffffffffffff821115620005635762000562620004c1565b5b602082029050919050565b600080fd5b600080fd5b600067ffffffffffffffff821115620005965762000595620004c1565b5b620005a182620004b0565b9050602081019050919050565b60005b83811015620005ce578082015181840152602081019050620005b1565b83811115620005de576000848401525b50505050565b6000620005fb620005f58462000578565b62000526565b9050828152602081018484840111156200061a576200061962000573565b5b62000627848285620005ae565b509392505050565b600082601f830112620006475762000646620004ab565b5b815162000659848260208601620005e4565b91505092915050565b600062000679620006738462000545565b62000526565b905080602084028301858111156200069657620006956200056e565b5b835b81811015620006e457805167ffffffffffffffff811115620006bf57620006be620004ab565b5b808601620006ce89826200062f565b8552602085019450505060208101905062000698565b5050509392505050565b600082601f830112620007065762000705620004ab565b5b60036200071584828562000662565b91505092915050565b6000819050919050565b62000733816200071e565b81146200073f57600080fd5b50565b600081519050620007538162000728565b92915050565b60008060008060008060c087890312156200077957620007786200037b565b5b60006200078989828a01620003d3565b96505060206200079c89828a0162000418565b9550506040620007af89828a0162000453565b9450506060620007c289828a0162000494565b935050608087015167ffffffffffffffff811115620007e657620007e562000380565b5b620007f489828a01620006ee565b92505060a06200080789828a0162000742565b9150509295509295509295565b600081519050919050565b7f4e487b7100000000000000000000000000000000000000000000000000000000600052602260045260246000fd5b600060028204905060018216806200086757607f821691505b6020821081036200087d576200087c6200081f565b5b50919050565b60008190508160005260206000209050919050565b60006020601f8301049050919050565b600082821b905092915050565b600060088302620008e77fffffffffffffffffffffffffffffffffffffffffffffffffffffffffffffffff82620008a8565b620008f38683620008a8565b95508019841693508086168417925050509392505050565b6000819050919050565b600062000936620009306200092a846200071e565b6200090b565b6200071e565b9050919050565b6000819050919050565b620009528362000915565b6200096a62000961826200093d565b848454620008b5565b825550505050565b600090565b6200098162000972565b6200098e81848462000947565b505050565b5b81811015620009b657620009aa60008262000977565b60018101905062000994565b5050565b601f82111562000a0557620009cf8162000883565b620009da8462000898565b81016020851015620009ea578190505b62000a02620009f98562000898565b83018262000993565b50505b505050565b600082821c905092915050565b600062000a2a6000198460080262000a0a565b1980831691505092915050565b600062000a45838362000a17565b9150826002028217905092915050565b62000a608262000814565b67ffffffffffffffff81111562000a7c5762000a7b620004c1565b5b62000a8882546200084e565b62000a95828285620009ba565b600060209050601f83116001811462000acd576000841562000ab8578287015190505b62000ac4858262000a37565b86555062000b34565b601f19841662000add8662000883565b60005b8281101562000b075784890151825560018201915060208501945060208101905062000ae0565b8683101562000b27578489015162000b23601f89168262000a17565b8355505b6001600288020188555050505b505050505050565b60805160a05160c05160e0516101005161012051613c9062000b9a60003960008181610d270152610f360152600061101001526000610fcc01526000610fed01526000610f900152600081816108d001526109240152613c906000f3fe6080604052600436106101665760003560e01c806370a08231116100d1578063a36f573b1161008a578063b88d4fde11610064578063b88d4fde14610531578063c87b56dd1461055a578063e985e9c514610597578063f2fde38b146105d457610166565b8063a36f573b14610499578063a51cccf3146104d6578063aa1524911461051357610166565b806370a082311461039b578063715018a6146103d85780637a5caab3146103ef5780638da5cb5b1461041a57806395d89b4114610445578063a22cb4651461047057610166565b80633af25975116101235780633af259751461028b5780633ccfd60b146102c857806342842e0e146102df5780635dacf5f4146103085780636352211e146103335780636e02007d1461037057610166565b806301ffc9a71461016b57806306fdde03146101a8578063081812fc146101d3578063095ea7b3146102105780631fe543e31461023957806323b872dd14610262575b600080fd5b34801561017757600080fd5b50610192600480360381019061018d91906125c2565b6105fd565b60405161019f919061260a565b60405180910390f35b3480156101b457600080fd5b506101bd6106df565b6040516101ca91906126be565b60405180910390f35b3480156101df57600080fd5b506101fa60048036038101906101f59190612716565b610771565b6040516102079190612784565b60405180910390f35b34801561021c57600080fd5b50610237600480360381019061023291906127cb565b6107b7565b005b34801561024557600080fd5b50610260600480360381019061025b9190612953565b6108ce565b005b34801561026e57600080fd5b50610289600480360381019061028491906129af565b61098e565b005b34801561029757600080fd5b506102b260048036038101906102ad9190612716565b6109ee565b6040516102bf91906126be565b60405180910390f35b3480156102d457600080fd5b506102dd610a9e565b005b3480156102eb57600080fd5b50610306600480360381019061030191906129af565b610b52565b005b34801561031457600080fd5b5061031d610b72565b60405161032a9190612aad565b60405180910390f35b34801561033f57600080fd5b5061035a60048036038101906103559190612716565b610b9d565b6040516103679190612784565b60405180910390f35b34801561037c57600080fd5b50610385610c4e565b6040516103929190612ad7565b60405180910390f35b3480156103a757600080fd5b506103c260048036038101906103bd9190612af2565b610c58565b6040516103cf9190612ad7565b60405180910390f35b3480156103e457600080fd5b506103ed610d0f565b005b3480156103fb57600080fd5b50610404610d23565b6040516104119190612ad7565b60405180910390f35b34801561042657600080fd5b5061042f610d4b565b60405161043c9190612784565b60405180910390f35b34801561045157600080fd5b5061045a610d75565b60405161046791906126be565b60405180910390f35b34801561047c57600080fd5b5061049760048036038101906104929190612b4b565b610e07565b005b3480156104a557600080fd5b506104c060048036038101906104bb9190612716565b610e1d565b6040516104cd9190612784565b60405180910390f35b3480156104e257600080fd5b506104fd60048036038101906104f89190612716565b610e50565b60405161050a9190612c02565b60405180910390f35b61051b610f32565b6040516105289190612ad7565b60405180910390f35b34801561053d57600080fd5b5061055860048036038101906105539190612cd2565b611176565b005b34801561056657600080fd5b50610581600480360381019061057c9190612716565b6111d8565b60405161058e91906126be565b60405180910390f35b3480156105a357600080fd5b506105be60048036038101906105b99190612d55565b6112ea565b6040516105cb919061260a565b60405180910390f35b3480156105e057600080fd5b506105fb60048036038101906105f69190612af2565b61137e565b005b60007f80ac58cd000000000000000000000000000000000000000000000000000000007bffffffffffffffffffffffffffffffffffffffffffffffffffffffff1916827bffffffffffffffffffffffffffffffffffffffffffffffffffffffff191614806106c857507f5b5e139f000000000000000000000000000000000000000000000000000000007bffffffffffffffffffffffffffffffffffffffffffffffffffffffff1916827bffffffffffffffffffffffffffffffffffffffffffffffffffffffff1916145b806106d857506106d782611401565b5b9050919050565b6060600080546106ee90612dc4565b80601f016020809104026020016040519081016040528092919081815260200182805461071a90612dc4565b80156107675780601f1061073c57610100808354040283529160200191610767565b820191906000526020600020905b81548152906001019060200180831161074a57829003601f168201915b5050505050905090565b600061077c8261146b565b6004600083815260200190815260200160002060009054906101000a900473ffffffffffffffffffffffffffffffffffffffff169050919050565b60006107c282610b9d565b90508073ffffffffffffffffffffffffffffffffffffffff168373ffffffffffffffffffffffffffffffffffffffff1603610832576040517f08c379a000000000000000000000000000000000000000000000000000000000815260040161082990612e67565b60405180910390fd5b8073ffffffffffffffffffffffffffffffffffffffff166108516114b6565b73ffffffffffffffffffffffffffffffffffffffff161480610880575061087f8161087a6114b6565b6112ea565b5b6108bf576040517f08c379a00000000000000000000000000000000000000000000000000000000081526004016108b690612ef9565b60405180910390fd5b6108c983836114be565b505050565b7f000000000000000000000000000000000000000000000000000000000000000073ffffffffffffffffffffffffffffffffffffffff163373ffffffffffffffffffffffffffffffffffffffff161461098057337f00000000000000000000000000000000000000000000000000000000000000006040517f1cf993f4000000000000000000000000000000000000000000000000000000008152600401610977929190612f19565b60405180910390fd5b61098a8282611577565b5050565b61099f6109996114b6565b82611714565b6109de576040517f08c379a00000000000000000000000000000000000000000000000000000000081526004016109d590612fb4565b60405180910390fd5b6109e98383836117a9565b505050565b6060600a8281548110610a0457610a03612fd4565b5b906000526020600020018054610a1990612dc4565b80601f0160208091040260200160405190810160405280929190818152602001828054610a4590612dc4565b8015610a925780601f10610a6757610100808354040283529160200191610a92565b820191906000526020600020905b815481529060010190602001808311610a7557829003601f168201915b50505050509050919050565b610aa6611a0f565b600047905060003373ffffffffffffffffffffffffffffffffffffffff1682604051610ad190613034565b60006040518083038185875af1925050503d8060008114610b0e576040519150601f19603f3d011682016040523d82523d6000602084013e610b13565b606091505b5050905080610b4e576040517f47a2918400000000000000000000000000000000000000000000000000000000815260040160405180910390fd5b5050565b610b6d83838360405180602001604052806000815250611176565b505050565b610b7a612534565b6040518060600160405280600a8152602001601e81526020016064815250905090565b6000806002600084815260200190815260200160002060009054906101000a900473ffffffffffffffffffffffffffffffffffffffff169050600073ffffffffffffffffffffffffffffffffffffffff168173ffffffffffffffffffffffffffffffffffffffff1603610c45576040517f08c379a0000000000000000000000000000000000000000000000000000000008152600401610c3c90613095565b60405180910390fd5b80915050919050565b6000600954905090565b60008073ffffffffffffffffffffffffffffffffffffffff168273ffffffffffffffffffffffffffffffffffffffff1603610cc8576040517f08c379a0000000000000000000000000000000000000000000000000000000008152600401610cbf90613127565b60405180910390fd5b600360008373ffffffffffffffffffffffffffffffffffffffff1673ffffffffffffffffffffffffffffffffffffffff168152602001908152602001600020549050919050565b610d17611a0f565b610d216000611a8d565b565b60007f0000000000000000000000000000000000000000000000000000000000000000905090565b6000600760009054906101000a900473ffffffffffffffffffffffffffffffffffffffff16905090565b606060018054610d8490612dc4565b80601f0160208091040260200160405190810160405280929190818152602001828054610db090612dc4565b8015610dfd5780601f10610dd257610100808354040283529160200191610dfd565b820191906000526020600020905b815481529060010190602001808311610de057829003601f168201915b5050505050905090565b610e19610e126114b6565b8383611b53565b5050565b60086020528060005260406000206000915054906101000a900473ffffffffffffffffffffffffffffffffffffffff1681565b600080600090506000610e61610b72565b905060005b6003811015610efa57828510158015610ea05750818160038110610e8d57610e8c612fd4565b5b602002015183610e9d9190613176565b85105b15610ec257806002811115610eb857610eb7612b8b565b5b9350505050610f2d565b818160038110610ed557610ed4612fd4565b5b602002015183610ee59190613176565b92508080610ef2906131cc565b915050610e66565b506040517f12806c9d00000000000000000000000000000000000000000000000000000000815260040160405180910390fd5b919050565b60007f0000000000000000000000000000000000000000000000000000000000000000341015610f8e576040517fb90f491000000000000000000000000000000000000000000000000000000000815260040160405180910390fd5b7f000000000000000000000000000000000000000000000000000000000000000073ffffffffffffffffffffffffffffffffffffffff16635d3b1d307f00000000000000000000000000000000000000000000000000000000000000007f000000000000000000000000000000000000000000000000000000000000000060037f000000000000000000000000000000000000000000000000000000000000000060016040518663ffffffff1660e01b815260040161105195949392919061328c565b6020604051808303816000875af1158015611070573d6000803e3d6000fd5b505050506040513d601f19601f8201168201806040525081019061109491906132f4565b905061010090506110a433611cbf565b6110ad81611d58565b336008600083815260200190815260200160002060006101000a81548173ffffffffffffffffffffffffffffffffffffffff021916908373ffffffffffffffffffffffffffffffffffffffff16021790555061113b6008600083815260200190815260200160002060009054906101000a900473ffffffffffffffffffffffffffffffffffffffff16611cbf565b807ff873236e6cc0ecc5be1a9a35c95ee5b8d1ac4cc7bfef0cc5060391d6cc98e26b3360405161116b9190612784565b60405180910390a290565b6111876111816114b6565b83611714565b6111c6576040517f08c379a00000000000000000000000000000000000000000000000000000000081526004016111bd90612fb4565b60405180910390fd5b6111d284848484611df1565b50505050565b60606111e38261146b565b600060066000848152602001908152602001600020805461120390612dc4565b80601f016020809104026020016040519081016040528092919081815260200182805461122f90612dc4565b801561127c5780601f106112515761010080835404028352916020019161127c565b820191906000526020600020905b81548152906001019060200180831161125f57829003601f168201915b50505050509050600061128d611e4d565b905060008151036112a25781925050506112e5565b6000825111156112d75780826040516020016112bf92919061335d565b604051602081830303815290604052925050506112e5565b6112e084611e64565b925050505b919050565b6000600560008473ffffffffffffffffffffffffffffffffffffffff1673ffffffffffffffffffffffffffffffffffffffff16815260200190815260200160002060008373ffffffffffffffffffffffffffffffffffffffff1673ffffffffffffffffffffffffffffffffffffffff16815260200190815260200160002060009054906101000a900460ff16905092915050565b611386611a0f565b600073ffffffffffffffffffffffffffffffffffffffff168173ffffffffffffffffffffffffffffffffffffffff16036113f5576040517f08c379a00000000000000000000000000000000000000000000000000000000081526004016113ec906133f3565b60405180910390fd5b6113fe81611a8d565b50565b60007f01ffc9a7000000000000000000000000000000000000000000000000000000007bffffffffffffffffffffffffffffffffffffffffffffffffffffffff1916827bffffffffffffffffffffffffffffffffffffffffffffffffffffffff1916149050919050565b61147481611ecc565b6114b3576040517f08c379a00000000000000000000000000000000000000000000000000000000081526004016114aa90613095565b60405180910390fd5b50565b600033905090565b816004600083815260200190815260200160002060006101000a81548173ffffffffffffffffffffffffffffffffffffffff021916908373ffffffffffffffffffffffffffffffffffffffff160217905550808273ffffffffffffffffffffffffffffffffffffffff1661153183610b9d565b73ffffffffffffffffffffffffffffffffffffffff167f8c5be1e5ebec7d5bd14f71427d1e84f3dd0314c0f7b2291e5b200ac8c7c3b92560405160405180910390a45050565b60006008600084815260200190815260200160002060009054906101000a900473ffffffffffffffffffffffffffffffffffffffff1690506000600954905060006064846000815181106115ce576115cd612fd4565b5b60200260200101516115e09190613442565b905060006115ed82610e50565b905060096000815480929190611602906131cc565b91905055506116118484611f38565b6116d383600a83600281111561162a57611629612b8b565b5b8154811061163b5761163a612fd4565b5b90600052602060002001805461165090612dc4565b80601f016020809104026020016040519081016040528092919081815260200182805461167c90612dc4565b80156116c95780601f1061169e576101008083540402835291602001916116c9565b820191906000526020600020905b8154815290600101906020018083116116ac57829003601f168201915b5050505050611f56565b7f8a269f26b688e110e9cbd887d163dab35cae678fa353a0292de532c0cac1ecdc8185604051611704929190613473565b60405180910390a1505050505050565b60008061172083610b9d565b90508073ffffffffffffffffffffffffffffffffffffffff168473ffffffffffffffffffffffffffffffffffffffff161480611762575061176181856112ea565b5b806117a057508373ffffffffffffffffffffffffffffffffffffffff1661178884610771565b73ffffffffffffffffffffffffffffffffffffffff16145b91505092915050565b8273ffffffffffffffffffffffffffffffffffffffff166117c982610b9d565b73ffffffffffffffffffffffffffffffffffffffff161461181f576040517f08c379a00000000000000000000000000000000000000000000000000000000081526004016118169061350e565b60405180910390fd5b600073ffffffffffffffffffffffffffffffffffffffff168273ffffffffffffffffffffffffffffffffffffffff160361188e576040517f08c379a0000000000000000000000000000000000000000000000000000000008152600401611885906135a0565b60405180910390fd5b611899838383611fc3565b6118a46000826114be565b6001600360008573ffffffffffffffffffffffffffffffffffffffff1673ffffffffffffffffffffffffffffffffffffffff16815260200190815260200160002060008282546118f491906135c0565b925050819055506001600360008473ffffffffffffffffffffffffffffffffffffffff1673ffffffffffffffffffffffffffffffffffffffff168152602001908152602001600020600082825461194b9190613176565b92505081905550816002600083815260200190815260200160002060006101000a81548173ffffffffffffffffffffffffffffffffffffffff021916908373ffffffffffffffffffffffffffffffffffffffff160217905550808273ffffffffffffffffffffffffffffffffffffffff168473ffffffffffffffffffffffffffffffffffffffff167fddf252ad1be2c89b69c2b068fc378daa952ba7f163c4a11628f55a4df523b3ef60405160405180910390a4611a0a838383611fc8565b505050565b611a176114b6565b73ffffffffffffffffffffffffffffffffffffffff16611a35610d4b565b73ffffffffffffffffffffffffffffffffffffffff1614611a8b576040517f08c379a0000000000000000000000000000000000000000000000000000000008152600401611a8290613640565b60405180910390fd5b565b6000600760009054906101000a900473ffffffffffffffffffffffffffffffffffffffff16905081600760006101000a81548173ffffffffffffffffffffffffffffffffffffffff021916908373ffffffffffffffffffffffffffffffffffffffff1602179055508173ffffffffffffffffffffffffffffffffffffffff168173ffffffffffffffffffffffffffffffffffffffff167f8be0079c531659141344cd1fd0a4f28419497f9722a3daafe3b4186f6b6457e060405160405180910390a35050565b8173ffffffffffffffffffffffffffffffffffffffff168373ffffffffffffffffffffffffffffffffffffffff1603611bc1576040517f08c379a0000000000000000000000000000000000000000000000000000000008152600401611bb8906136ac565b60405180910390fd5b80600560008573ffffffffffffffffffffffffffffffffffffffff1673ffffffffffffffffffffffffffffffffffffffff16815260200190815260200160002060008473ffffffffffffffffffffffffffffffffffffffff1673ffffffffffffffffffffffffffffffffffffffff16815260200190815260200160002060006101000a81548160ff0219169083151502179055508173ffffffffffffffffffffffffffffffffffffffff168373ffffffffffffffffffffffffffffffffffffffff167f17307eab39ab6107e8899845ad3d59bd9653f200f220920489ca2b5937696c3183604051611cb2919061260a565b60405180910390a3505050565b611d5581604051602401611cd39190612784565b6040516020818303038152906040527f2c2ecbc2000000000000000000000000000000000000000000000000000000007bffffffffffffffffffffffffffffffffffffffffffffffffffffffff19166020820180517bffffffffffffffffffffffffffffffffffffffffffffffffffffffff8381831617835250505050611fcd565b50565b611dee81604051602401611d6c9190612ad7565b6040516020818303038152906040527ff5b1bba9000000000000000000000000000000000000000000000000000000007bffffffffffffffffffffffffffffffffffffffffffffffffffffffff19166020820180517bffffffffffffffffffffffffffffffffffffffffffffffffffffffff8381831617835250505050611fcd565b50565b611dfc8484846117a9565b611e0884848484611ff6565b611e47576040517f08c379a0000000000000000000000000000000000000000000000000000000008152600401611e3e9061373e565b60405180910390fd5b50505050565b606060405180602001604052806000815250905090565b6060611e6f8261146b565b6000611e79611e4d565b90506000815111611e995760405180602001604052806000815250611ec4565b80611ea38461217d565b604051602001611eb492919061335d565b6040516020818303038152906040525b915050919050565b60008073ffffffffffffffffffffffffffffffffffffffff166002600084815260200190815260200160002060009054906101000a900473ffffffffffffffffffffffffffffffffffffffff1673ffffffffffffffffffffffffffffffffffffffff1614159050919050565b611f528282604051806020016040528060008152506122dd565b5050565b611f5f82611ecc565b611f9e576040517f08c379a0000000000000000000000000000000000000000000000000000000008152600401611f95906137d0565b60405180910390fd5b80600660008481526020019081526020016000209081611fbe919061399c565b505050565b505050565b505050565b60008151905060006a636f6e736f6c652e6c6f679050602083016000808483855afa5050505050565b60006120178473ffffffffffffffffffffffffffffffffffffffff16612338565b15612170578373ffffffffffffffffffffffffffffffffffffffff1663150b7a026120406114b6565b8786866040518563ffffffff1660e01b81526004016120629493929190613ac3565b6020604051808303816000875af192505050801561209e57506040513d601f19601f8201168201806040525081019061209b9190613b24565b60015b612120573d80600081146120ce576040519150601f19603f3d011682016040523d82523d6000602084013e6120d3565b606091505b506000815103612118576040517f08c379a000000000000000000000000000000000000000000000000000000000815260040161210f9061373e565b60405180910390fd5b805181602001fd5b63150b7a0260e01b7bffffffffffffffffffffffffffffffffffffffffffffffffffffffff1916817bffffffffffffffffffffffffffffffffffffffffffffffffffffffff191614915050612175565b600190505b949350505050565b6060600082036121c4576040518060400160405280600181526020017f300000000000000000000000000000000000000000000000000000000000000081525090506122d8565b600082905060005b600082146121f65780806121df906131cc565b915050600a826121ef9190613b51565b91506121cc565b60008167ffffffffffffffff81111561221257612211612810565b5b6040519080825280601f01601f1916602001820160405280156122445781602001600182028036833780820191505090505b5090505b600085146122d15760018261225d91906135c0565b9150600a8561226c9190613442565b60306122789190613176565b60f81b81838151811061228e5761228d612fd4565b5b60200101907effffffffffffffffffffffffffffffffffffffffffffffffffffffffffffff1916908160001a905350600a856122ca9190613b51565b9450612248565b8093505050505b919050565b6122e7838361235b565b6122f46000848484611ff6565b612333576040517f08c379a000000000000000000000000000000000000000000000000000000000815260040161232a9061373e565b60405180910390fd5b505050565b6000808273ffffffffffffffffffffffffffffffffffffffff163b119050919050565b600073ffffffffffffffffffffffffffffffffffffffff168273ffffffffffffffffffffffffffffffffffffffff16036123ca576040517f08c379a00000000000000000000000000000000000000000000000000000000081526004016123c190613bce565b60405180910390fd5b6123d381611ecc565b15612413576040517f08c379a000000000000000000000000000000000000000000000000000000000815260040161240a90613c3a565b60405180910390fd5b61241f60008383611fc3565b6001600360008473ffffffffffffffffffffffffffffffffffffffff1673ffffffffffffffffffffffffffffffffffffffff168152602001908152602001600020600082825461246f9190613176565b92505081905550816002600083815260200190815260200160002060006101000a81548173ffffffffffffffffffffffffffffffffffffffff021916908373ffffffffffffffffffffffffffffffffffffffff160217905550808273ffffffffffffffffffffffffffffffffffffffff16600073ffffffffffffffffffffffffffffffffffffffff167fddf252ad1be2c89b69c2b068fc378daa952ba7f163c4a11628f55a4df523b3ef60405160405180910390a461253060008383611fc8565b5050565b6040518060600160405280600390602082028036833780820191505090505090565b6000604051905090565b600080fd5b600080fd5b60007fffffffff0000000000000000000000000000000000000000000000000000000082169050919050565b61259f8161256a565b81146125aa57600080fd5b50565b6000813590506125bc81612596565b92915050565b6000602082840312156125d8576125d7612560565b5b60006125e6848285016125ad565b91505092915050565b60008115159050919050565b612604816125ef565b82525050565b600060208201905061261f60008301846125fb565b92915050565b600081519050919050565b600082825260208201905092915050565b60005b8381101561265f578082015181840152602081019050612644565b8381111561266e576000848401525b50505050565b6000601f19601f8301169050919050565b600061269082612625565b61269a8185612630565b93506126aa818560208601612641565b6126b381612674565b840191505092915050565b600060208201905081810360008301526126d88184612685565b905092915050565b6000819050919050565b6126f3816126e0565b81146126fe57600080fd5b50565b600081359050612710816126ea565b92915050565b60006020828403121561272c5761272b612560565b5b600061273a84828501612701565b91505092915050565b600073ffffffffffffffffffffffffffffffffffffffff82169050919050565b600061276e82612743565b9050919050565b61277e81612763565b82525050565b60006020820190506127996000830184612775565b92915050565b6127a881612763565b81146127b357600080fd5b50565b6000813590506127c58161279f565b92915050565b600080604083850312156127e2576127e1612560565b5b60006127f0858286016127b6565b925050602061280185828601612701565b9150509250929050565b600080fd5b7f4e487b7100000000000000000000000000000000000000000000000000000000600052604160045260246000fd5b61284882612674565b810181811067ffffffffffffffff8211171561286757612866612810565b5b80604052505050565b600061287a612556565b9050612886828261283f565b919050565b600067ffffffffffffffff8211156128a6576128a5612810565b5b602082029050602081019050919050565b600080fd5b60006128cf6128ca8461288b565b612870565b905080838252602082019050602084028301858111156128f2576128f16128b7565b5b835b8181101561291b57806129078882612701565b8452602084019350506020810190506128f4565b5050509392505050565b600082601f83011261293a5761293961280b565b5b813561294a8482602086016128bc565b91505092915050565b6000806040838503121561296a57612969612560565b5b600061297885828601612701565b925050602083013567ffffffffffffffff81111561299957612998612565565b5b6129a585828601612925565b9150509250929050565b6000806000606084860312156129c8576129c7612560565b5b60006129d6868287016127b6565b93505060206129e7868287016127b6565b92505060406129f886828701612701565b9150509250925092565b600060039050919050565b600081905092915050565b6000819050919050565b612a2b816126e0565b82525050565b6000612a3d8383612a22565b60208301905092915050565b6000602082019050919050565b612a5f81612a02565b612a698184612a0d565b9250612a7482612a18565b8060005b83811015612aa5578151612a8c8782612a31565b9650612a9783612a49565b925050600181019050612a78565b505050505050565b6000606082019050612ac26000830184612a56565b92915050565b612ad1816126e0565b82525050565b6000602082019050612aec6000830184612ac8565b92915050565b600060208284031215612b0857612b07612560565b5b6000612b16848285016127b6565b91505092915050565b612b28816125ef565b8114612b3357600080fd5b50565b600081359050612b4581612b1f565b92915050565b60008060408385031215612b6257612b61612560565b5b6000612b70858286016127b6565b9250506020612b8185828601612b36565b9150509250929050565b7f4e487b7100000000000000000000000000000000000000000000000000000000600052602160045260246000fd5b60038110612bcb57612bca612b8b565b5b50565b6000819050612bdc82612bba565b919050565b6000612bec82612bce565b9050919050565b612bfc81612be1565b82525050565b6000602082019050612c176000830184612bf3565b92915050565b600080fd5b600067ffffffffffffffff821115612c3d57612c3c612810565b5b612c4682612674565b9050602081019050919050565b82818337600083830152505050565b6000612c75612c7084612c22565b612870565b905082815260208101848484011115612c9157612c90612c1d565b5b612c9c848285612c53565b509392505050565b600082601f830112612cb957612cb861280b565b5b8135612cc9848260208601612c62565b91505092915050565b60008060008060808587031215612cec57612ceb612560565b5b6000612cfa878288016127b6565b9450506020612d0b878288016127b6565b9350506040612d1c87828801612701565b925050606085013567ffffffffffffffff811115612d3d57612d3c612565565b5b612d4987828801612ca4565b91505092959194509250565b60008060408385031215612d6c57612d6b612560565b5b6000612d7a858286016127b6565b9250506020612d8b858286016127b6565b9150509250929050565b7f4e487b7100000000000000000000000000000000000000000000000000000000600052602260045260246000fd5b60006002820490506001821680612ddc57607f821691505b602082108103612def57612dee612d95565b5b50919050565b7f4552433732313a20617070726f76616c20746f2063757272656e74206f776e6560008201527f7200000000000000000000000000000000000000000000000000000000000000602082015250565b6000612e51602183612630565b9150612e5c82612df5565b604082019050919050565b60006020820190508181036000830152612e8081612e44565b9050919050565b7f4552433732313a20617070726f76652063616c6c6572206973206e6f7420746f60008201527f6b656e206f776e6572206e6f7220617070726f76656420666f7220616c6c0000602082015250565b6000612ee3603e83612630565b9150612eee82612e87565b604082019050919050565b60006020820190508181036000830152612f1281612ed6565b9050919050565b6000604082019050612f2e6000830185612775565b612f3b6020830184612775565b9392505050565b7f4552433732313a2063616c6c6572206973206e6f7420746f6b656e206f776e6560008201527f72206e6f7220617070726f766564000000000000000000000000000000000000602082015250565b6000612f9e602e83612630565b9150612fa982612f42565b604082019050919050565b60006020820190508181036000830152612fcd81612f91565b9050919050565b7f4e487b7100000000000000000000000000000000000000000000000000000000600052603260045260246000fd5b600081905092915050565b50565b600061301e600083613003565b91506130298261300e565b600082019050919050565b600061303f82613011565b9150819050919050565b7f4552433732313a20696e76616c696420746f6b656e2049440000000000000000600082015250565b600061307f601883612630565b915061308a82613049565b602082019050919050565b600060208201905081810360008301526130ae81613072565b9050919050565b7f4552433732313a2061646472657373207a65726f206973206e6f74206120766160008201527f6c6964206f776e65720000000000000000000000000000000000000000000000602082015250565b6000613111602983612630565b915061311c826130b5565b604082019050919050565b6000602082019050818103600083015261314081613104565b9050919050565b7f4e487b7100000000000000000000000000000000000000000000000000000000600052601160045260246000fd5b6000613181826126e0565b915061318c836126e0565b9250827fffffffffffffffffffffffffffffffffffffffffffffffffffffffffffffffff038211156131c1576131c0613147565b5b828201905092915050565b60006131d7826126e0565b91507fffffffffffffffffffffffffffffffffffffffffffffffffffffffffffffffff820361320957613208613147565b5b600182019050919050565b6000819050919050565b61322781613214565b82525050565b600067ffffffffffffffff82169050919050565b61324a8161322d565b82525050565b600061ffff82169050919050565b61326781613250565b82525050565b600063ffffffff82169050919050565b6132868161326d565b82525050565b600060a0820190506132a1600083018861321e565b6132ae6020830187613241565b6132bb604083018661325e565b6132c8606083018561327d565b6132d5608083018461327d565b9695505050505050565b6000815190506132ee816126ea565b92915050565b60006020828403121561330a57613309612560565b5b6000613318848285016132df565b91505092915050565b600081905092915050565b600061333782612625565b6133418185613321565b9350613351818560208601612641565b80840191505092915050565b6000613369828561332c565b9150613375828461332c565b91508190509392505050565b7f4f776e61626c653a206e6577206f776e657220697320746865207a65726f206160008201527f6464726573730000000000000000000000000000000000000000000000000000602082015250565b60006133dd602683612630565b91506133e882613381565b604082019050919050565b6000602082019050818103600083015261340c816133d0565b9050919050565b7f4e487b7100000000000000000000000000000000000000000000000000000000600052601260045260246000fd5b600061344d826126e0565b9150613458836126e0565b92508261346857613467613413565b5b828206905092915050565b60006040820190506134886000830185612bf3565b6134956020830184612775565b9392505050565b7f4552433732313a207472616e736665722066726f6d20696e636f72726563742060008201527f6f776e6572000000000000000000000000000000000000000000000000000000602082015250565b60006134f8602583612630565b91506135038261349c565b604082019050919050565b60006020820190508181036000830152613527816134eb565b9050919050565b7f4552433732313a207472616e7366657220746f20746865207a65726f2061646460008201527f7265737300000000000000000000000000000000000000000000000000000000602082015250565b600061358a602483612630565b91506135958261352e565b604082019050919050565b600060208201905081810360008301526135b98161357d565b9050919050565b60006135cb826126e0565b91506135d6836126e0565b9250828210156135e9576135e8613147565b5b828203905092915050565b7f4f776e61626c653a2063616c6c6572206973206e6f7420746865206f776e6572600082015250565b600061362a602083612630565b9150613635826135f4565b602082019050919050565b600060208201905081810360008301526136598161361d565b9050919050565b7f4552433732313a20617070726f766520746f2063616c6c657200000000000000600082015250565b6000613696601983612630565b91506136a182613660565b602082019050919050565b600060208201905081810360008301526136c581613689565b9050919050565b7f4552433732313a207472616e7366657220746f206e6f6e20455243373231526560008201527f63656976657220696d706c656d656e7465720000000000000000000000000000602082015250565b6000613728603283612630565b9150613733826136cc565b604082019050919050565b600060208201905081810360008301526137578161371b565b9050919050565b7f45524337323155524953746f726167653a2055524920736574206f66206e6f6e60008201527f6578697374656e7420746f6b656e000000000000000000000000000000000000602082015250565b60006137ba602e83612630565b91506137c58261375e565b604082019050919050565b600060208201905081810360008301526137e9816137ad565b9050919050565b60008190508160005260206000209050919050565b60006020601f8301049050919050565b600082821b905092915050565b6000600883026138527fffffffffffffffffffffffffffffffffffffffffffffffffffffffffffffffff82613815565b61385c8683613815565b95508019841693508086168417925050509392505050565b6000819050919050565b600061389961389461388f846126e0565b613874565b6126e0565b9050919050565b6000819050919050565b6138b38361387e565b6138c76138bf826138a0565b848454613822565b825550505050565b600090565b6138dc6138cf565b6138e78184846138aa565b505050565b5b8181101561390b576139006000826138d4565b6001810190506138ed565b5050565b601f82111561395057613921816137f0565b61392a84613805565b81016020851015613939578190505b61394d61394585613805565b8301826138ec565b50505b505050565b600082821c905092915050565b600061397360001984600802613955565b1980831691505092915050565b600061398c8383613962565b9150826002028217905092915050565b6139a582612625565b67ffffffffffffffff8111156139be576139bd612810565b5b6139c88254612dc4565b6139d382828561390f565b600060209050601f831160018114613a0657600084156139f4578287015190505b6139fe8582613980565b865550613a66565b601f198416613a14866137f0565b60005b82811015613a3c57848901518255600182019150602085019450602081019050613a17565b86831015613a595784890151613a55601f891682613962565b8355505b6001600288020188555050505b505050505050565b600081519050919050565b600082825260208201905092915050565b6000613a9582613a6e565b613a9f8185613a79565b9350613aaf818560208601612641565b613ab881612674565b840191505092915050565b6000608082019050613ad86000830187612775565b613ae56020830186612775565b613af26040830185612ac8565b8181036060830152613b048184613a8a565b905095945050505050565b600081519050613b1e81612596565b92915050565b600060208284031215613b3a57613b39612560565b5b6000613b4884828501613b0f565b91505092915050565b6000613b5c826126e0565b9150613b67836126e0565b925082613b7757613b76613413565b5b828204905092915050565b7f4552433732313a206d696e7420746f20746865207a65726f2061646472657373600082015250565b6000613bb8602083612630565b9150613bc382613b82565b602082019050919050565b60006020820190508181036000830152613be781613bab565b9050919050565b7f4552433732313a20746f6b656e20616c7265616479206d696e74656400000000600082015250565b6000613c24601c83612630565b9150613c2f82613bee565b602082019050919050565b60006020820190508181036000830152613c5381613c17565b905091905056fea2646970667358221220dbf44012db5d29fa1af4153781f106dd10c841857196eb092ed5107a5bb1a46e64736f6c634300080f0033",
  "linkReferences": {},
  "deployedLinkReferences": {}
}