{
  "_format": "hh-sol-artifact-1",
  "contractName": "RandomIpfsNft",
  "sourceName": "contracts/RandomIpfsNft.sol",
  "abi": [
    {
      "inputs": [
        {
          "internalType": "address",
          "name": "vrfCoordinatorV2",
          "type": "address"
        },
        {
          "internalType": "uint64",
          "name": "subscriptionId",
          "type": "uint64"
        },
        {
          "internalType": "bytes32",
          "name": "gasLane",
          "type": "bytes32"
        },
        {
          "internalType": "uint32",
          "name": "callbackGasLimit",
          "type": "uint32"
        },
        {
          "internalType": "string[3]",
          "name": "dogTokenURIs",
          "type": "string[3]"
        },
        {
          "internalType": "uint256",
          "name": "mintFee",
          "type": "uint256"
        }
      ],
      "stateMutability": "nonpayable",
      "type": "constructor"
    },
    {
      "inputs": [
        {
          "internalType": "address",
          "name": "have",
          "type": "address"
        },
        {
          "internalType": "address",
          "name": "want",
          "type": "address"
        }
      ],
      "name": "OnlyCoordinatorCanFulfill",
      "type": "error"
    },
    {
      "inputs": [],
      "name": "RandomIpfsNft__NeedMoreETHSent",
      "type": "error"
    },
    {
      "inputs": [],
      "name": "RandomIpfsNft__RangeOutOfBounds",
      "type": "error"
    },
    {
      "inputs": [],
      "name": "RandomIpfsNft__TransactionFailed",
      "type": "error"
    },
    {
      "anonymous": false,
      "inputs": [
        {
          "indexed": true,
          "internalType": "address",
          "name": "owner",
          "type": "address"
        },
        {
          "indexed": true,
          "internalType": "address",
          "name": "approved",
          "type": "address"
        },
        {
          "indexed": true,
          "internalType": "uint256",
          "name": "tokenId",
          "type": "uint256"
        }
      ],
      "name": "Approval",
      "type": "event"
    },
    {
      "anonymous": false,
      "inputs": [
        {
          "indexed": true,
          "internalType": "address",
          "name": "owner",
          "type": "address"
        },
        {
          "indexed": true,
          "internalType": "address",
          "name": "operator",
          "type": "address"
        },
        {
          "indexed": false,
          "internalType": "bool",
          "name": "approved",
          "type": "bool"
        }
      ],
      "name": "ApprovalForAll",
      "type": "event"
    },
    {
      "anonymous": false,
      "inputs": [
        {
          "indexed": false,
          "internalType": "enum RandomIpfsNft.Breed",
          "name": "dogBreed",
          "type": "uint8"
        },
        {
          "indexed": false,
          "internalType": "address",
          "name": "minter",
          "type": "address"
        }
      ],
      "name": "NftMinted",
      "type": "event"
    },
    {
      "anonymous": false,
      "inputs": [
        {
          "indexed": true,
          "internalType": "uint256",
          "name": "requestId",
          "type": "uint256"
        },
        {
          "indexed": false,
          "internalType": "address",
          "name": "requester",
          "type": "address"
        }
      ],
      "name": "NftRequested",
      "type": "event"
    },
    {
      "anonymous": false,
      "inputs": [
        {
          "indexed": true,
          "internalType": "address",
          "name": "previousOwner",
          "type": "address"
        },
        {
          "indexed": true,
          "internalType": "address",
          "name": "newOwner",
          "type": "address"
        }
      ],
      "name": "OwnershipTransferred",
      "type": "event"
    },
    {
      "anonymous": false,
      "inputs": [
        {
          "indexed": true,
          "internalType": "address",
          "name": "from",
          "type": "address"
        },
        {
          "indexed": true,
          "internalType": "address",
          "name": "to",
          "type": "address"
        },
        {
          "indexed": true,
          "internalType": "uint256",
          "name": "tokenId",
          "type": "uint256"
        }
      ],
      "name": "Transfer",
      "type": "event"
    },
    {
      "inputs": [
        {
          "internalType": "address",
          "name": "to",
          "type": "address"
        },
        {
          "internalType": "uint256",
          "name": "tokenId",
          "type": "uint256"
        }
      ],
      "name": "approve",
      "outputs": [],
      "stateMutability": "nonpayable",
      "type": "function"
    },
    {
      "inputs": [
        {
          "internalType": "address",
          "name": "owner",
          "type": "address"
        }
      ],
      "name": "balanceOf",
      "outputs": [
        {
          "internalType": "uint256",
          "name": "",
          "type": "uint256"
        }
      ],
      "stateMutability": "view",
      "type": "function"
    },
    {
      "inputs": [
        {
          "internalType": "uint256",
          "name": "tokenId",
          "type": "uint256"
        }
      ],
      "name": "getApproved",
      "outputs": [
        {
          "internalType": "address",
          "name": "",
          "type": "address"
        }
      ],
      "stateMutability": "view",
      "type": "function"
    },
    {
      "inputs": [
        {
          "internalType": "uint256",
          "name": "moddedRng",
          "type": "uint256"
        }
      ],
      "name": "getBreedFromModdedRng",
      "outputs": [
        {
          "internalType": "enum RandomIpfsNft.Breed",
          "name": "",
          "type": "uint8"
        }
      ],
      "stateMutability": "pure",
      "type": "function"
    },
    {
      "inputs": [],
      "name": "getChanceArray",
      "outputs": [
        {
          "internalType": "uint256[3]",
          "name": "",
          "type": "uint256[3]"
        }
      ],
      "stateMutability": "pure",
      "type": "function"
    },
    {
      "inputs": [
        {
          "internalType": "uint256",
          "name": "index",
          "type": "uint256"
        }
      ],
      "name": "getDogTokenUris",
      "outputs": [
        {
          "internalType": "string",
          "name": "",
          "type": "string"
        }
      ],
      "stateMutability": "view",
      "type": "function"
    },
    {
      "inputs": [],
      "name": "getMintFee",
      "outputs": [
        {
          "internalType": "uint256",
          "name": "",
          "type": "uint256"
        }
      ],
      "stateMutability": "view",
      "type": "function"
    },
    {
      "inputs": [],
      "name": "getTokenCounter",
      "outputs": [
        {
          "internalType": "uint256",
          "name": "",
          "type": "uint256"
        }
      ],
      "stateMutability": "view",
      "type": "function"
    },
    {
      "inputs": [
        {
          "internalType": "address",
          "name": "owner",
          "type": "address"
        },
        {
          "internalType": "address",
          "name": "operator",
          "type": "address"
        }
      ],
      "name": "isApprovedForAll",
      "outputs": [
        {
          "internalType": "bool",
          "name": "",
          "type": "bool"
        }
      ],
      "stateMutability": "view",
      "type": "function"
    },
    {
      "inputs": [],
      "name": "name",
      "outputs": [
        {
          "internalType": "string",
          "name": "",
          "type": "string"
        }
      ],
      "stateMutability": "view",
      "type": "function"
    },
    {
      "inputs": [],
      "name": "owner",
      "outputs": [
        {
          "internalType": "address",
          "name": "",
          "type": "address"
        }
      ],
      "stateMutability": "view",
      "type": "function"
    },
    {
      "inputs": [
        {
          "internalType": "uint256",
          "name": "tokenId",
          "type": "uint256"
        }
      ],
      "name": "ownerOf",
      "outputs": [
        {
          "internalType": "address",
          "name": "",
          "type": "address"
        }
      ],
      "stateMutability": "view",
      "type": "function"
    },
    {
      "inputs": [
        {
          "internalType": "uint256",
          "name": "requestId",
          "type": "uint256"
        },
        {
          "internalType": "uint256[]",
          "name": "randomWords",
          "type": "uint256[]"
        }
      ],
      "name": "rawFulfillRandomWords",
      "outputs": [],
      "stateMutability": "nonpayable",
      "type": "function"
    },
    {
      "inputs": [],
      "name": "renounceOwnership",
      "outputs": [],
      "stateMutability": "nonpayable",
      "type": "function"
    },
    {
      "inputs": [],
      "name": "requestNft",
      "outputs": [
        {
          "internalType": "uint256",
          "name": "requestId",
          "type": "uint256"
        }
      ],
      "stateMutability": "payable",
      "type": "function"
    },
    {
      "inputs": [
        {
          "internalType": "uint256",
          "name": "",
          "type": "uint256"
        }
      ],
      "name": "s_requestIdToSender",
      "outputs": [
        {
          "internalType": "address",
          "name": "",
          "type": "address"
        }
      ],
      "stateMutability": "view",
      "type": "function"
    },
    {
      "inputs": [
        {
          "internalType": "address",
          "name": "from",
          "type": "address"
        },
        {
          "internalType": "address",
          "name": "to",
          "type": "address"
        },
        {
          "internalType": "uint256",
          "name": "tokenId",
          "type": "uint256"
        }
      ],
      "name": "safeTransferFrom",
      "outputs": [],
      "stateMutability": "nonpayable",
      "type": "function"
    },
    {
      "inputs": [
        {
          "internalType": "address",
          "name": "from",
          "type": "address"
        },
        {
          "internalType": "address",
          "name": "to",
          "type": "address"
        },
        {
          "internalType": "uint256",
          "name": "tokenId",
          "type": "uint256"
        },
        {
          "internalType": "bytes",
          "name": "data",
          "type": "bytes"
        }
      ],
      "name": "safeTransferFrom",
      "outputs": [],
      "stateMutability": "nonpayable",
      "type": "function"
    },
    {
      "inputs": [
        {
          "internalType": "address",
          "name": "operator",
          "type": "address"
        },
        {
          "internalType": "bool",
          "name": "approved",
          "type": "bool"
        }
      ],
      "name": "setApprovalForAll",
      "outputs": [],
      "stateMutability": "nonpayable",
      "type": "function"
    },
    {
      "inputs": [
        {
          "internalType": "bytes4",
          "name": "interfaceId",
          "type": "bytes4"
        }
      ],
      "name": "supportsInterface",
      "outputs": [
        {
          "internalType": "bool",
          "name": "",
          "type": "bool"
        }
      ],
      "stateMutability": "view",
      "type": "function"
    },
    {
      "inputs": [],
      "name": "symbol",
      "outputs": [
        {
          "internalType": "string",
          "name": "",
          "type": "string"
        }
      ],
      "stateMutability": "view",
      "type": "function"
    },
    {
      "inputs": [
        {
          "internalType": "uint256",
          "name": "tokenId",
          "type": "uint256"
        }
      ],
      "name": "tokenURI",
      "outputs": [
        {
          "internalType": "string",
          "name": "",
          "type": "string"
        }
      ],
      "stateMutability": "view",
      "type": "function"
    },
    {
      "inputs": [
        {
          "internalType": "address",
          "name": "from",
          "type": "address"
        },
        {
          "internalType": "address",
          "name": "to",
          "type": "address"
        },
        {
          "internalType": "uint256",
          "name": "tokenId",
          "type": "uint256"
        }
      ],
      "name": "transferFrom",
      "outputs": [],
      "stateMutability": "nonpayable",
      "type": "function"
    },
    {
      "inputs": [
        {
          "internalType": "address",
          "name": "newOwner",
          "type": "address"
        }
      ],
      "name": "transferOwnership",
      "outputs": [],
      "stateMutability": "nonpayable",
      "type": "function"
    },
    {
      "inputs": [],
      "name": "withdraw",
      "outputs": [],
      "stateMutability": "nonpayable",
      "type": "function"
    }
  ],
  "bytecode": "0x6101406040523480156200001257600080fd5b506040516200467c3803806200467c833981810160405281019062000038919062000759565b6040518060400160405280600f81526020017f52616e646f6d2049706673204e465400000000000000000000000000000000008152506040518060400160405280600381526020017f52494e0000000000000000000000000000000000000000000000000000000000815250878073ffffffffffffffffffffffffffffffffffffffff1660808173ffffffffffffffffffffffffffffffffffffffff1681525050508160009081620000eb919062000a55565b508060019081620000fd919062000a55565b5050506200012062000114620001b660201b60201c565b620001be60201b60201c565b8573ffffffffffffffffffffffffffffffffffffffff1660a08173ffffffffffffffffffffffffffffffffffffffff16815250508467ffffffffffffffff1660c08167ffffffffffffffff16815250508360e081815250508263ffffffff166101008163ffffffff168152505081600a906003620001a092919062000284565b5080610120818152505050505050505062000b3c565b600033905090565b6000600760009054906101000a900473ffffffffffffffffffffffffffffffffffffffff16905081600760006101000a81548173ffffffffffffffffffffffffffffffffffffffff021916908373ffffffffffffffffffffffffffffffffffffffff1602179055508173ffffffffffffffffffffffffffffffffffffffff168173ffffffffffffffffffffffffffffffffffffffff167f8be0079c531659141344cd1fd0a4f28419497f9722a3daafe3b4186f6b6457e060405160405180910390a35050565b828054828255906000526020600020908101928215620002d1579160200282015b82811115620002d0578251829081620002bf919062000a55565b5091602001919060010190620002a5565b5b509050620002e09190620002e4565b5090565b5b80821115620003085760008181620002fe91906200030c565b50600101620002e5565b5090565b5080546200031a906200084e565b6000825580601f106200032e57506200034f565b601f0160209004906000526020600020908101906200034e919062000352565b5b50565b5b808211156200036d57600081600090555060010162000353565b5090565b6000604051905090565b600080fd5b600080fd5b600073ffffffffffffffffffffffffffffffffffffffff82169050919050565b6000620003b28262000385565b9050919050565b620003c481620003a5565b8114620003d057600080fd5b50565b600081519050620003e481620003b9565b92915050565b600067ffffffffffffffff82169050919050565b6200040981620003ea565b81146200041557600080fd5b50565b6000815190506200042981620003fe565b92915050565b6000819050919050565b62000444816200042f565b81146200045057600080fd5b50565b600081519050620004648162000439565b92915050565b600063ffffffff82169050919050565b62000485816200046a565b81146200049157600080fd5b50565b600081519050620004a5816200047a565b92915050565b600080fd5b6000601f19601f8301169050919050565b7f4e487b7100000000000000000000000000000000000000000000000000000000600052604160045260246000fd5b620004fb82620004b0565b810181811067ffffffffffffffff821117156200051d576200051c620004c1565b5b80604052505050565b60006200053262000371565b9050620005408282620004f0565b919050565b600067ffffffffffffffff821115620005635762000562620004c1565b5b602082029050919050565b600080fd5b600080fd5b600067ffffffffffffffff821115620005965762000595620004c1565b5b620005a182620004b0565b9050602081019050919050565b60005b83811015620005ce578082015181840152602081019050620005b1565b83811115620005de576000848401525b50505050565b6000620005fb620005f58462000578565b62000526565b9050828152602081018484840111156200061a576200061962000573565b5b62000627848285620005ae565b509392505050565b600082601f830112620006475762000646620004ab565b5b815162000659848260208601620005e4565b91505092915050565b600062000679620006738462000545565b62000526565b905080602084028301858111156200069657620006956200056e565b5b835b81811015620006e457805167ffffffffffffffff811115620006bf57620006be620004ab565b5b808601620006ce89826200062f565b8552602085019450505060208101905062000698565b5050509392505050565b600082601f830112620007065762000705620004ab565b5b60036200071584828562000662565b91505092915050565b6000819050919050565b62000733816200071e565b81146200073f57600080fd5b50565b600081519050620007538162000728565b92915050565b60008060008060008060c087890312156200077957620007786200037b565b5b60006200078989828a01620003d3565b96505060206200079c89828a0162000418565b9550506040620007af89828a0162000453565b9450506060620007c289828a0162000494565b935050608087015167ffffffffffffffff811115620007e657620007e562000380565b5b620007f489828a01620006ee565b92505060a06200080789828a0162000742565b9150509295509295509295565b600081519050919050565b7f4e487b7100000000000000000000000000000000000000000000000000000000600052602260045260246000fd5b600060028204905060018216806200086757607f821691505b6020821081036200087d576200087c6200081f565b5b50919050565b60008190508160005260206000209050919050565b60006020601f8301049050919050565b600082821b905092915050565b600060088302620008e77fffffffffffffffffffffffffffffffffffffffffffffffffffffffffffffffff82620008a8565b620008f38683620008a8565b95508019841693508086168417925050509392505050565b6000819050919050565b600062000936620009306200092a846200071e565b6200090b565b6200071e565b9050919050565b6000819050919050565b620009528362000915565b6200096a62000961826200093d565b848454620008b5565b825550505050565b600090565b6200098162000972565b6200098e81848462000947565b505050565b5b81811015620009b657620009aa60008262000977565b60018101905062000994565b5050565b601f82111562000a0557620009cf8162000883565b620009da8462000898565b81016020851015620009ea578190505b62000a02620009f98562000898565b83018262000993565b50505b505050565b600082821c905092915050565b600062000a2a6000198460080262000a0a565b1980831691505092915050565b600062000a45838362000a17565b9150826002028217905092915050565b62000a608262000814565b67ffffffffffffffff81111562000a7c5762000a7b620004c1565b5b62000a8882546200084e565b62000a95828285620009ba565b600060209050601f83116001811462000acd576000841562000ab8578287015190505b62000ac4858262000a37565b86555062000b34565b601f19841662000add8662000883565b60005b8281101562000b075784890151825560018201915060208501945060208101905062000ae0565b8683101562000b27578489015162000b23601f89168262000a17565b8355505b6001600288020188555050505b505050505050565b60805160a05160c05160e0516101005161012051613ae262000b9a60003960008181610d270152610f360152600061101001526000610fcc01526000610fed01526000610f900152600081816108d001526109240152613ae26000f3fe6080604052600436106101665760003560e01c806370a08231116100d1578063a36f573b1161008a578063b88d4fde11610064578063b88d4fde14610531578063c87b56dd1461055a578063e985e9c514610597578063f2fde38b146105d457610166565b8063a36f573b14610499578063a51cccf3146104d6578063aa1524911461051357610166565b806370a082311461039b578063715018a6146103d85780637a5caab3146103ef5780638da5cb5b1461041a57806395d89b4114610445578063a22cb4651461047057610166565b80633af25975116101235780633af259751461028b5780633ccfd60b146102c857806342842e0e146102df5780635dacf5f4146103085780636352211e146103335780636e02007d1461037057610166565b806301ffc9a71461016b57806306fdde03146101a8578063081812fc146101d3578063095ea7b3146102105780631fe543e31461023957806323b872dd14610262575b600080fd5b34801561017757600080fd5b50610192600480360381019061018d9190612414565b6105fd565b60405161019f919061245c565b60405180910390f35b3480156101b457600080fd5b506101bd6106df565b6040516101ca9190612510565b60405180910390f35b3480156101df57600080fd5b506101fa60048036038101906101f59190612568565b610771565b60405161020791906125d6565b60405180910390f35b34801561021c57600080fd5b506102376004803603810190610232919061261d565b6107b7565b005b34801561024557600080fd5b50610260600480360381019061025b91906127a5565b6108ce565b005b34801561026e57600080fd5b5061028960048036038101906102849190612801565b61098e565b005b34801561029757600080fd5b506102b260048036038101906102ad9190612568565b6109ee565b6040516102bf9190612510565b60405180910390f35b3480156102d457600080fd5b506102dd610a9e565b005b3480156102eb57600080fd5b5061030660048036038101906103019190612801565b610b52565b005b34801561031457600080fd5b5061031d610b72565b60405161032a91906128ff565b60405180910390f35b34801561033f57600080fd5b5061035a60048036038101906103559190612568565b610b9d565b60405161036791906125d6565b60405180910390f35b34801561037c57600080fd5b50610385610c4e565b6040516103929190612929565b60405180910390f35b3480156103a757600080fd5b506103c260048036038101906103bd9190612944565b610c58565b6040516103cf9190612929565b60405180910390f35b3480156103e457600080fd5b506103ed610d0f565b005b3480156103fb57600080fd5b50610404610d23565b6040516104119190612929565b60405180910390f35b34801561042657600080fd5b5061042f610d4b565b60405161043c91906125d6565b60405180910390f35b34801561045157600080fd5b5061045a610d75565b6040516104679190612510565b60405180910390f35b34801561047c57600080fd5b506104976004803603810190610492919061299d565b610e07565b005b3480156104a557600080fd5b506104c060048036038101906104bb9190612568565b610e1d565b6040516104cd91906125d6565b60405180910390f35b3480156104e257600080fd5b506104fd60048036038101906104f89190612568565b610e50565b60405161050a9190612a54565b60405180910390f35b61051b610f32565b6040516105289190612929565b60405180910390f35b34801561053d57600080fd5b5061055860048036038101906105539190612b24565b611123565b005b34801561056657600080fd5b50610581600480360381019061057c9190612568565b611185565b60405161058e9190612510565b60405180910390f35b3480156105a357600080fd5b506105be60048036038101906105b99190612ba7565b611297565b6040516105cb919061245c565b60405180910390f35b3480156105e057600080fd5b506105fb60048036038101906105f69190612944565b61132b565b005b60007f80ac58cd000000000000000000000000000000000000000000000000000000007bffffffffffffffffffffffffffffffffffffffffffffffffffffffff1916827bffffffffffffffffffffffffffffffffffffffffffffffffffffffff191614806106c857507f5b5e139f000000000000000000000000000000000000000000000000000000007bffffffffffffffffffffffffffffffffffffffffffffffffffffffff1916827bffffffffffffffffffffffffffffffffffffffffffffffffffffffff1916145b806106d857506106d7826113ae565b5b9050919050565b6060600080546106ee90612c16565b80601f016020809104026020016040519081016040528092919081815260200182805461071a90612c16565b80156107675780601f1061073c57610100808354040283529160200191610767565b820191906000526020600020905b81548152906001019060200180831161074a57829003601f168201915b5050505050905090565b600061077c82611418565b6004600083815260200190815260200160002060009054906101000a900473ffffffffffffffffffffffffffffffffffffffff169050919050565b60006107c282610b9d565b90508073ffffffffffffffffffffffffffffffffffffffff168373ffffffffffffffffffffffffffffffffffffffff1603610832576040517f08c379a000000000000000000000000000000000000000000000000000000000815260040161082990612cb9565b60405180910390fd5b8073ffffffffffffffffffffffffffffffffffffffff16610851611463565b73ffffffffffffffffffffffffffffffffffffffff161480610880575061087f8161087a611463565b611297565b5b6108bf576040517f08c379a00000000000000000000000000000000000000000000000000000000081526004016108b690612d4b565b60405180910390fd5b6108c9838361146b565b505050565b7f000000000000000000000000000000000000000000000000000000000000000073ffffffffffffffffffffffffffffffffffffffff163373ffffffffffffffffffffffffffffffffffffffff161461098057337f00000000000000000000000000000000000000000000000000000000000000006040517f1cf993f4000000000000000000000000000000000000000000000000000000008152600401610977929190612d6b565b60405180910390fd5b61098a8282611524565b5050565b61099f610999611463565b826116c1565b6109de576040517f08c379a00000000000000000000000000000000000000000000000000000000081526004016109d590612e06565b60405180910390fd5b6109e9838383611756565b505050565b6060600a8281548110610a0457610a03612e26565b5b906000526020600020018054610a1990612c16565b80601f0160208091040260200160405190810160405280929190818152602001828054610a4590612c16565b8015610a925780601f10610a6757610100808354040283529160200191610a92565b820191906000526020600020905b815481529060010190602001808311610a7557829003601f168201915b50505050509050919050565b610aa66119bc565b600047905060003373ffffffffffffffffffffffffffffffffffffffff1682604051610ad190612e86565b60006040518083038185875af1925050503d8060008114610b0e576040519150601f19603f3d011682016040523d82523d6000602084013e610b13565b606091505b5050905080610b4e576040517f47a2918400000000000000000000000000000000000000000000000000000000815260040160405180910390fd5b5050565b610b6d83838360405180602001604052806000815250611123565b505050565b610b7a612386565b6040518060600160405280600a8152602001601e81526020016064815250905090565b6000806002600084815260200190815260200160002060009054906101000a900473ffffffffffffffffffffffffffffffffffffffff169050600073ffffffffffffffffffffffffffffffffffffffff168173ffffffffffffffffffffffffffffffffffffffff1603610c45576040517f08c379a0000000000000000000000000000000000000000000000000000000008152600401610c3c90612ee7565b60405180910390fd5b80915050919050565b6000600954905090565b60008073ffffffffffffffffffffffffffffffffffffffff168273ffffffffffffffffffffffffffffffffffffffff1603610cc8576040517f08c379a0000000000000000000000000000000000000000000000000000000008152600401610cbf90612f79565b60405180910390fd5b600360008373ffffffffffffffffffffffffffffffffffffffff1673ffffffffffffffffffffffffffffffffffffffff168152602001908152602001600020549050919050565b610d176119bc565b610d216000611a3a565b565b60007f0000000000000000000000000000000000000000000000000000000000000000905090565b6000600760009054906101000a900473ffffffffffffffffffffffffffffffffffffffff16905090565b606060018054610d8490612c16565b80601f0160208091040260200160405190810160405280929190818152602001828054610db090612c16565b8015610dfd5780601f10610dd257610100808354040283529160200191610dfd565b820191906000526020600020905b815481529060010190602001808311610de057829003601f168201915b5050505050905090565b610e19610e12611463565b8383611b00565b5050565b60086020528060005260406000206000915054906101000a900473ffffffffffffffffffffffffffffffffffffffff1681565b600080600090506000610e61610b72565b905060005b6003811015610efa57828510158015610ea05750818160038110610e8d57610e8c612e26565b5b602002015183610e9d9190612fc8565b85105b15610ec257806002811115610eb857610eb76129dd565b5b9350505050610f2d565b818160038110610ed557610ed4612e26565b5b602002015183610ee59190612fc8565b92508080610ef29061301e565b915050610e66565b506040517f12806c9d00000000000000000000000000000000000000000000000000000000815260040160405180910390fd5b919050565b60007f0000000000000000000000000000000000000000000000000000000000000000341015610f8e576040517fb90f491000000000000000000000000000000000000000000000000000000000815260040160405180910390fd5b7f000000000000000000000000000000000000000000000000000000000000000073ffffffffffffffffffffffffffffffffffffffff16635d3b1d307f00000000000000000000000000000000000000000000000000000000000000007f000000000000000000000000000000000000000000000000000000000000000060037f000000000000000000000000000000000000000000000000000000000000000060016040518663ffffffff1660e01b81526004016110519594939291906130de565b6020604051808303816000875af1158015611070573d6000803e3d6000fd5b505050506040513d601f19601f820116820180604052508101906110949190613146565b9050336008600083815260200190815260200160002060006101000a81548173ffffffffffffffffffffffffffffffffffffffff021916908373ffffffffffffffffffffffffffffffffffffffff160217905550807ff873236e6cc0ecc5be1a9a35c95ee5b8d1ac4cc7bfef0cc5060391d6cc98e26b3360405161111891906125d6565b60405180910390a290565b61113461112e611463565b836116c1565b611173576040517f08c379a000000000000000000000000000000000000000000000000000000000815260040161116a90612e06565b60405180910390fd5b61117f84848484611c6c565b50505050565b606061119082611418565b60006006600084815260200190815260200160002080546111b090612c16565b80601f01602080910402602001604051908101604052809291908181526020018280546111dc90612c16565b80156112295780601f106111fe57610100808354040283529160200191611229565b820191906000526020600020905b81548152906001019060200180831161120c57829003601f168201915b50505050509050600061123a611cc8565b9050600081510361124f578192505050611292565b60008251111561128457808260405160200161126c9291906131af565b60405160208183030381529060405292505050611292565b61128d84611cdf565b925050505b919050565b6000600560008473ffffffffffffffffffffffffffffffffffffffff1673ffffffffffffffffffffffffffffffffffffffff16815260200190815260200160002060008373ffffffffffffffffffffffffffffffffffffffff1673ffffffffffffffffffffffffffffffffffffffff16815260200190815260200160002060009054906101000a900460ff16905092915050565b6113336119bc565b600073ffffffffffffffffffffffffffffffffffffffff168173ffffffffffffffffffffffffffffffffffffffff16036113a2576040517f08c379a000000000000000000000000000000000000000000000000000000000815260040161139990613245565b60405180910390fd5b6113ab81611a3a565b50565b60007f01ffc9a7000000000000000000000000000000000000000000000000000000007bffffffffffffffffffffffffffffffffffffffffffffffffffffffff1916827bffffffffffffffffffffffffffffffffffffffffffffffffffffffff1916149050919050565b61142181611d47565b611460576040517f08c379a000000000000000000000000000000000000000000000000000000000815260040161145790612ee7565b60405180910390fd5b50565b600033905090565b816004600083815260200190815260200160002060006101000a81548173ffffffffffffffffffffffffffffffffffffffff021916908373ffffffffffffffffffffffffffffffffffffffff160217905550808273ffffffffffffffffffffffffffffffffffffffff166114de83610b9d565b73ffffffffffffffffffffffffffffffffffffffff167f8c5be1e5ebec7d5bd14f71427d1e84f3dd0314c0f7b2291e5b200ac8c7c3b92560405160405180910390a45050565b60006008600084815260200190815260200160002060009054906101000a900473ffffffffffffffffffffffffffffffffffffffff16905060006009549050600060648460008151811061157b5761157a612e26565b5b602002602001015161158d9190613294565b9050600061159a82610e50565b9050600960008154809291906115af9061301e565b91905055506115be8484611db3565b61168083600a8360028111156115d7576115d66129dd565b5b815481106115e8576115e7612e26565b5b9060005260206000200180546115fd90612c16565b80601f016020809104026020016040519081016040528092919081815260200182805461162990612c16565b80156116765780601f1061164b57610100808354040283529160200191611676565b820191906000526020600020905b81548152906001019060200180831161165957829003601f168201915b5050505050611dd1565b7f8a269f26b688e110e9cbd887d163dab35cae678fa353a0292de532c0cac1ecdc81856040516116b19291906132c5565b60405180910390a1505050505050565b6000806116cd83610b9d565b90508073ffffffffffffffffffffffffffffffffffffffff168473ffffffffffffffffffffffffffffffffffffffff16148061170f575061170e8185611297565b5b8061174d57508373ffffffffffffffffffffffffffffffffffffffff1661173584610771565b73ffffffffffffffffffffffffffffffffffffffff16145b91505092915050565b8273ffffffffffffffffffffffffffffffffffffffff1661177682610b9d565b73ffffffffffffffffffffffffffffffffffffffff16146117cc576040517f08c379a00000000000000000000000000000000000000000000000000000000081526004016117c390613360565b60405180910390fd5b600073ffffffffffffffffffffffffffffffffffffffff168273ffffffffffffffffffffffffffffffffffffffff160361183b576040517f08c379a0000000000000000000000000000000000000000000000000000000008152600401611832906133f2565b60405180910390fd5b611846838383611e3e565b61185160008261146b565b6001600360008573ffffffffffffffffffffffffffffffffffffffff1673ffffffffffffffffffffffffffffffffffffffff16815260200190815260200160002060008282546118a19190613412565b925050819055506001600360008473ffffffffffffffffffffffffffffffffffffffff1673ffffffffffffffffffffffffffffffffffffffff16815260200190815260200160002060008282546118f89190612fc8565b92505081905550816002600083815260200190815260200160002060006101000a81548173ffffffffffffffffffffffffffffffffffffffff021916908373ffffffffffffffffffffffffffffffffffffffff160217905550808273ffffffffffffffffffffffffffffffffffffffff168473ffffffffffffffffffffffffffffffffffffffff167fddf252ad1be2c89b69c2b068fc378daa952ba7f163c4a11628f55a4df523b3ef60405160405180910390a46119b7838383611e43565b505050565b6119c4611463565b73ffffffffffffffffffffffffffffffffffffffff166119e2610d4b565b73ffffffffffffffffffffffffffffffffffffffff1614611a38576040517f08c379a0000000000000000000000000000000000000000000000000000000008152600401611a2f90613492565b60405180910390fd5b565b6000600760009054906101000a900473ffffffffffffffffffffffffffffffffffffffff16905081600760006101000a81548173ffffffffffffffffffffffffffffffffffffffff021916908373ffffffffffffffffffffffffffffffffffffffff1602179055508173ffffffffffffffffffffffffffffffffffffffff168173ffffffffffffffffffffffffffffffffffffffff167f8be0079c531659141344cd1fd0a4f28419497f9722a3daafe3b4186f6b6457e060405160405180910390a35050565b8173ffffffffffffffffffffffffffffffffffffffff168373ffffffffffffffffffffffffffffffffffffffff1603611b6e576040517f08c379a0000000000000000000000000000000000000000000000000000000008152600401611b65906134fe565b60405180910390fd5b80600560008573ffffffffffffffffffffffffffffffffffffffff1673ffffffffffffffffffffffffffffffffffffffff16815260200190815260200160002060008473ffffffffffffffffffffffffffffffffffffffff1673ffffffffffffffffffffffffffffffffffffffff16815260200190815260200160002060006101000a81548160ff0219169083151502179055508173ffffffffffffffffffffffffffffffffffffffff168373ffffffffffffffffffffffffffffffffffffffff167f17307eab39ab6107e8899845ad3d59bd9653f200f220920489ca2b5937696c3183604051611c5f919061245c565b60405180910390a3505050565b611c77848484611756565b611c8384848484611e48565b611cc2576040517f08c379a0000000000000000000000000000000000000000000000000000000008152600401611cb990613590565b60405180910390fd5b50505050565b606060405180602001604052806000815250905090565b6060611cea82611418565b6000611cf4611cc8565b90506000815111611d145760405180602001604052806000815250611d3f565b80611d1e84611fcf565b604051602001611d2f9291906131af565b6040516020818303038152906040525b915050919050565b60008073ffffffffffffffffffffffffffffffffffffffff166002600084815260200190815260200160002060009054906101000a900473ffffffffffffffffffffffffffffffffffffffff1673ffffffffffffffffffffffffffffffffffffffff1614159050919050565b611dcd82826040518060200160405280600081525061212f565b5050565b611dda82611d47565b611e19576040517f08c379a0000000000000000000000000000000000000000000000000000000008152600401611e1090613622565b60405180910390fd5b80600660008481526020019081526020016000209081611e3991906137ee565b505050565b505050565b505050565b6000611e698473ffffffffffffffffffffffffffffffffffffffff1661218a565b15611fc2578373ffffffffffffffffffffffffffffffffffffffff1663150b7a02611e92611463565b8786866040518563ffffffff1660e01b8152600401611eb49493929190613915565b6020604051808303816000875af1925050508015611ef057506040513d601f19601f82011682018060405250810190611eed9190613976565b60015b611f72573d8060008114611f20576040519150601f19603f3d011682016040523d82523d6000602084013e611f25565b606091505b506000815103611f6a576040517f08c379a0000000000000000000000000000000000000000000000000000000008152600401611f6190613590565b60405180910390fd5b805181602001fd5b63150b7a0260e01b7bffffffffffffffffffffffffffffffffffffffffffffffffffffffff1916817bffffffffffffffffffffffffffffffffffffffffffffffffffffffff191614915050611fc7565b600190505b949350505050565b606060008203612016576040518060400160405280600181526020017f3000000000000000000000000000000000000000000000000000000000000000815250905061212a565b600082905060005b600082146120485780806120319061301e565b915050600a8261204191906139a3565b915061201e565b60008167ffffffffffffffff81111561206457612063612662565b5b6040519080825280601f01601f1916602001820160405280156120965781602001600182028036833780820191505090505b5090505b60008514612123576001826120af9190613412565b9150600a856120be9190613294565b60306120ca9190612fc8565b60f81b8183815181106120e0576120df612e26565b5b60200101907effffffffffffffffffffffffffffffffffffffffffffffffffffffffffffff1916908160001a905350600a8561211c91906139a3565b945061209a565b8093505050505b919050565b61213983836121ad565b6121466000848484611e48565b612185576040517f08c379a000000000000000000000000000000000000000000000000000000000815260040161217c90613590565b60405180910390fd5b505050565b6000808273ffffffffffffffffffffffffffffffffffffffff163b119050919050565b600073ffffffffffffffffffffffffffffffffffffffff168273ffffffffffffffffffffffffffffffffffffffff160361221c576040517f08c379a000000000000000000000000000000000000000000000000000000000815260040161221390613a20565b60405180910390fd5b61222581611d47565b15612265576040517f08c379a000000000000000000000000000000000000000000000000000000000815260040161225c90613a8c565b60405180910390fd5b61227160008383611e3e565b6001600360008473ffffffffffffffffffffffffffffffffffffffff1673ffffffffffffffffffffffffffffffffffffffff16815260200190815260200160002060008282546122c19190612fc8565b92505081905550816002600083815260200190815260200160002060006101000a81548173ffffffffffffffffffffffffffffffffffffffff021916908373ffffffffffffffffffffffffffffffffffffffff160217905550808273ffffffffffffffffffffffffffffffffffffffff16600073ffffffffffffffffffffffffffffffffffffffff167fddf252ad1be2c89b69c2b068fc378daa952ba7f163c4a11628f55a4df523b3ef60405160405180910390a461238260008383611e43565b5050565b6040518060600160405280600390602082028036833780820191505090505090565b6000604051905090565b600080fd5b600080fd5b60007fffffffff0000000000000000000000000000000000000000000000000000000082169050919050565b6123f1816123bc565b81146123fc57600080fd5b50565b60008135905061240e816123e8565b92915050565b60006020828403121561242a576124296123b2565b5b6000612438848285016123ff565b91505092915050565b60008115159050919050565b61245681612441565b82525050565b6000602082019050612471600083018461244d565b92915050565b600081519050919050565b600082825260208201905092915050565b60005b838110156124b1578082015181840152602081019050612496565b838111156124c0576000848401525b50505050565b6000601f19601f8301169050919050565b60006124e282612477565b6124ec8185612482565b93506124fc818560208601612493565b612505816124c6565b840191505092915050565b6000602082019050818103600083015261252a81846124d7565b905092915050565b6000819050919050565b61254581612532565b811461255057600080fd5b50565b6000813590506125628161253c565b92915050565b60006020828403121561257e5761257d6123b2565b5b600061258c84828501612553565b91505092915050565b600073ffffffffffffffffffffffffffffffffffffffff82169050919050565b60006125c082612595565b9050919050565b6125d0816125b5565b82525050565b60006020820190506125eb60008301846125c7565b92915050565b6125fa816125b5565b811461260557600080fd5b50565b600081359050612617816125f1565b92915050565b60008060408385031215612634576126336123b2565b5b600061264285828601612608565b925050602061265385828601612553565b9150509250929050565b600080fd5b7f4e487b7100000000000000000000000000000000000000000000000000000000600052604160045260246000fd5b61269a826124c6565b810181811067ffffffffffffffff821117156126b9576126b8612662565b5b80604052505050565b60006126cc6123a8565b90506126d88282612691565b919050565b600067ffffffffffffffff8211156126f8576126f7612662565b5b602082029050602081019050919050565b600080fd5b600061272161271c846126dd565b6126c2565b9050808382526020820190506020840283018581111561274457612743612709565b5b835b8181101561276d57806127598882612553565b845260208401935050602081019050612746565b5050509392505050565b600082601f83011261278c5761278b61265d565b5b813561279c84826020860161270e565b91505092915050565b600080604083850312156127bc576127bb6123b2565b5b60006127ca85828601612553565b925050602083013567ffffffffffffffff8111156127eb576127ea6123b7565b5b6127f785828601612777565b9150509250929050565b60008060006060848603121561281a576128196123b2565b5b600061282886828701612608565b935050602061283986828701612608565b925050604061284a86828701612553565b9150509250925092565b600060039050919050565b600081905092915050565b6000819050919050565b61287d81612532565b82525050565b600061288f8383612874565b60208301905092915050565b6000602082019050919050565b6128b181612854565b6128bb818461285f565b92506128c68261286a565b8060005b838110156128f75781516128de8782612883565b96506128e98361289b565b9250506001810190506128ca565b505050505050565b600060608201905061291460008301846128a8565b92915050565b61292381612532565b82525050565b600060208201905061293e600083018461291a565b92915050565b60006020828403121561295a576129596123b2565b5b600061296884828501612608565b91505092915050565b61297a81612441565b811461298557600080fd5b50565b60008135905061299781612971565b92915050565b600080604083850312156129b4576129b36123b2565b5b60006129c285828601612608565b92505060206129d385828601612988565b9150509250929050565b7f4e487b7100000000000000000000000000000000000000000000000000000000600052602160045260246000fd5b60038110612a1d57612a1c6129dd565b5b50565b6000819050612a2e82612a0c565b919050565b6000612a3e82612a20565b9050919050565b612a4e81612a33565b82525050565b6000602082019050612a696000830184612a45565b92915050565b600080fd5b600067ffffffffffffffff821115612a8f57612a8e612662565b5b612a98826124c6565b9050602081019050919050565b82818337600083830152505050565b6000612ac7612ac284612a74565b6126c2565b905082815260208101848484011115612ae357612ae2612a6f565b5b612aee848285612aa5565b509392505050565b600082601f830112612b0b57612b0a61265d565b5b8135612b1b848260208601612ab4565b91505092915050565b60008060008060808587031215612b3e57612b3d6123b2565b5b6000612b4c87828801612608565b9450506020612b5d87828801612608565b9350506040612b6e87828801612553565b925050606085013567ffffffffffffffff811115612b8f57612b8e6123b7565b5b612b9b87828801612af6565b91505092959194509250565b60008060408385031215612bbe57612bbd6123b2565b5b6000612bcc85828601612608565b9250506020612bdd85828601612608565b9150509250929050565b7f4e487b7100000000000000000000000000000000000000000000000000000000600052602260045260246000fd5b60006002820490506001821680612c2e57607f821691505b602082108103612c4157612c40612be7565b5b50919050565b7f4552433732313a20617070726f76616c20746f2063757272656e74206f776e6560008201527f7200000000000000000000000000000000000000000000000000000000000000602082015250565b6000612ca3602183612482565b9150612cae82612c47565b604082019050919050565b60006020820190508181036000830152612cd281612c96565b9050919050565b7f4552433732313a20617070726f76652063616c6c6572206973206e6f7420746f60008201527f6b656e206f776e6572206e6f7220617070726f76656420666f7220616c6c0000602082015250565b6000612d35603e83612482565b9150612d4082612cd9565b604082019050919050565b60006020820190508181036000830152612d6481612d28565b9050919050565b6000604082019050612d8060008301856125c7565b612d8d60208301846125c7565b9392505050565b7f4552433732313a2063616c6c6572206973206e6f7420746f6b656e206f776e6560008201527f72206e6f7220617070726f766564000000000000000000000000000000000000602082015250565b6000612df0602e83612482565b9150612dfb82612d94565b604082019050919050565b60006020820190508181036000830152612e1f81612de3565b9050919050565b7f4e487b7100000000000000000000000000000000000000000000000000000000600052603260045260246000fd5b600081905092915050565b50565b6000612e70600083612e55565b9150612e7b82612e60565b600082019050919050565b6000612e9182612e63565b9150819050919050565b7f4552433732313a20696e76616c696420746f6b656e2049440000000000000000600082015250565b6000612ed1601883612482565b9150612edc82612e9b565b602082019050919050565b60006020820190508181036000830152612f0081612ec4565b9050919050565b7f4552433732313a2061646472657373207a65726f206973206e6f74206120766160008201527f6c6964206f776e65720000000000000000000000000000000000000000000000602082015250565b6000612f63602983612482565b9150612f6e82612f07565b604082019050919050565b60006020820190508181036000830152612f9281612f56565b9050919050565b7f4e487b7100000000000000000000000000000000000000000000000000000000600052601160045260246000fd5b6000612fd382612532565b9150612fde83612532565b9250827fffffffffffffffffffffffffffffffffffffffffffffffffffffffffffffffff0382111561301357613012612f99565b5b828201905092915050565b600061302982612532565b91507fffffffffffffffffffffffffffffffffffffffffffffffffffffffffffffffff820361305b5761305a612f99565b5b600182019050919050565b6000819050919050565b61307981613066565b82525050565b600067ffffffffffffffff82169050919050565b61309c8161307f565b82525050565b600061ffff82169050919050565b6130b9816130a2565b82525050565b600063ffffffff82169050919050565b6130d8816130bf565b82525050565b600060a0820190506130f36000830188613070565b6131006020830187613093565b61310d60408301866130b0565b61311a60608301856130cf565b61312760808301846130cf565b9695505050505050565b6000815190506131408161253c565b92915050565b60006020828403121561315c5761315b6123b2565b5b600061316a84828501613131565b91505092915050565b600081905092915050565b600061318982612477565b6131938185613173565b93506131a3818560208601612493565b80840191505092915050565b60006131bb828561317e565b91506131c7828461317e565b91508190509392505050565b7f4f776e61626c653a206e6577206f776e657220697320746865207a65726f206160008201527f6464726573730000000000000000000000000000000000000000000000000000602082015250565b600061322f602683612482565b915061323a826131d3565b604082019050919050565b6000602082019050818103600083015261325e81613222565b9050919050565b7f4e487b7100000000000000000000000000000000000000000000000000000000600052601260045260246000fd5b600061329f82612532565b91506132aa83612532565b9250826132ba576132b9613265565b5b828206905092915050565b60006040820190506132da6000830185612a45565b6132e760208301846125c7565b9392505050565b7f4552433732313a207472616e736665722066726f6d20696e636f72726563742060008201527f6f776e6572000000000000000000000000000000000000000000000000000000602082015250565b600061334a602583612482565b9150613355826132ee565b604082019050919050565b600060208201905081810360008301526133798161333d565b9050919050565b7f4552433732313a207472616e7366657220746f20746865207a65726f2061646460008201527f7265737300000000000000000000000000000000000000000000000000000000602082015250565b60006133dc602483612482565b91506133e782613380565b604082019050919050565b6000602082019050818103600083015261340b816133cf565b9050919050565b600061341d82612532565b915061342883612532565b92508282101561343b5761343a612f99565b5b828203905092915050565b7f4f776e61626c653a2063616c6c6572206973206e6f7420746865206f776e6572600082015250565b600061347c602083612482565b915061348782613446565b602082019050919050565b600060208201905081810360008301526134ab8161346f565b9050919050565b7f4552433732313a20617070726f766520746f2063616c6c657200000000000000600082015250565b60006134e8601983612482565b91506134f3826134b2565b602082019050919050565b60006020820190508181036000830152613517816134db565b9050919050565b7f4552433732313a207472616e7366657220746f206e6f6e20455243373231526560008201527f63656976657220696d706c656d656e7465720000000000000000000000000000602082015250565b600061357a603283612482565b91506135858261351e565b604082019050919050565b600060208201905081810360008301526135a98161356d565b9050919050565b7f45524337323155524953746f726167653a2055524920736574206f66206e6f6e60008201527f6578697374656e7420746f6b656e000000000000000000000000000000000000602082015250565b600061360c602e83612482565b9150613617826135b0565b604082019050919050565b6000602082019050818103600083015261363b816135ff565b9050919050565b60008190508160005260206000209050919050565b60006020601f8301049050919050565b600082821b905092915050565b6000600883026136a47fffffffffffffffffffffffffffffffffffffffffffffffffffffffffffffffff82613667565b6136ae8683613667565b95508019841693508086168417925050509392505050565b6000819050919050565b60006136eb6136e66136e184612532565b6136c6565b612532565b9050919050565b6000819050919050565b613705836136d0565b613719613711826136f2565b848454613674565b825550505050565b600090565b61372e613721565b6137398184846136fc565b505050565b5b8181101561375d57613752600082613726565b60018101905061373f565b5050565b601f8211156137a25761377381613642565b61377c84613657565b8101602085101561378b578190505b61379f61379785613657565b83018261373e565b50505b505050565b600082821c905092915050565b60006137c5600019846008026137a7565b1980831691505092915050565b60006137de83836137b4565b9150826002028217905092915050565b6137f782612477565b67ffffffffffffffff8111156138105761380f612662565b5b61381a8254612c16565b613825828285613761565b600060209050601f8311600181146138585760008415613846578287015190505b61385085826137d2565b8655506138b8565b601f19841661386686613642565b60005b8281101561388e57848901518255600182019150602085019450602081019050613869565b868310156138ab57848901516138a7601f8916826137b4565b8355505b6001600288020188555050505b505050505050565b600081519050919050565b600082825260208201905092915050565b60006138e7826138c0565b6138f181856138cb565b9350613901818560208601612493565b61390a816124c6565b840191505092915050565b600060808201905061392a60008301876125c7565b61393760208301866125c7565b613944604083018561291a565b818103606083015261395681846138dc565b905095945050505050565b600081519050613970816123e8565b92915050565b60006020828403121561398c5761398b6123b2565b5b600061399a84828501613961565b91505092915050565b60006139ae82612532565b91506139b983612532565b9250826139c9576139c8613265565b5b828204905092915050565b7f4552433732313a206d696e7420746f20746865207a65726f2061646472657373600082015250565b6000613a0a602083612482565b9150613a15826139d4565b602082019050919050565b60006020820190508181036000830152613a39816139fd565b9050919050565b7f4552433732313a20746f6b656e20616c7265616479206d696e74656400000000600082015250565b6000613a76601c83612482565b9150613a8182613a40565b602082019050919050565b60006020820190508181036000830152613aa581613a69565b905091905056fea2646970667358221220b00996dc28307f0295eee18a3d5b83d83185eac41dbfcccc46e9a8ccd6c8942b64736f6c634300080f0033",
  "linkReferences": {},
  "deployedLinkReferences": {}
}